{
  "_format": "hh-sol-artifact-1",
  "contractName": "MessageProxyForSchain",
  "sourceName": "contracts/schain/MessageProxyForSchain.sol",
  "abi": [
    {
      "anonymous": false,
      "inputs": [
        {
          "indexed": true,
          "internalType": "bytes32",
          "name": "chainHash",
          "type": "bytes32"
        },
        {
          "indexed": false,
          "internalType": "address",
          "name": "contractAddress",
          "type": "address"
        }
      ],
      "name": "ExtraContractRegistered",
      "type": "event"
    },
    {
      "anonymous": false,
      "inputs": [
        {
          "indexed": true,
          "internalType": "bytes32",
          "name": "chainHash",
          "type": "bytes32"
        },
        {
          "indexed": false,
          "internalType": "address",
          "name": "contractAddress",
          "type": "address"
        }
      ],
      "name": "ExtraContractRemoved",
      "type": "event"
    },
    {
      "anonymous": false,
      "inputs": [
        {
          "indexed": false,
          "internalType": "uint256",
          "name": "oldValue",
          "type": "uint256"
        },
        {
          "indexed": false,
          "internalType": "uint256",
          "name": "newValue",
          "type": "uint256"
        }
      ],
      "name": "GasLimitWasChanged",
      "type": "event"
    },
    {
      "anonymous": false,
      "inputs": [
        {
          "indexed": true,
          "internalType": "bytes32",
          "name": "dstChainHash",
          "type": "bytes32"
        },
        {
          "indexed": true,
          "internalType": "uint256",
          "name": "msgCounter",
          "type": "uint256"
        },
        {
          "indexed": true,
          "internalType": "address",
          "name": "srcContract",
          "type": "address"
        },
        {
          "indexed": false,
          "internalType": "address",
          "name": "dstContract",
          "type": "address"
        },
        {
          "indexed": false,
          "internalType": "bytes",
          "name": "data",
          "type": "bytes"
        }
      ],
      "name": "OutgoingMessage",
      "type": "event"
    },
    {
      "anonymous": false,
      "inputs": [
        {
          "indexed": true,
          "internalType": "uint256",
          "name": "msgCounter",
          "type": "uint256"
        },
        {
          "indexed": false,
          "internalType": "bytes",
          "name": "message",
          "type": "bytes"
        }
      ],
      "name": "PostMessageError",
      "type": "event"
    },
    {
      "anonymous": false,
      "inputs": [
        {
          "indexed": true,
          "internalType": "bytes32",
          "name": "role",
          "type": "bytes32"
        },
        {
          "indexed": true,
          "internalType": "bytes32",
          "name": "previousAdminRole",
          "type": "bytes32"
        },
        {
          "indexed": true,
          "internalType": "bytes32",
          "name": "newAdminRole",
          "type": "bytes32"
        }
      ],
      "name": "RoleAdminChanged",
      "type": "event"
    },
    {
      "anonymous": false,
      "inputs": [
        {
          "indexed": true,
          "internalType": "bytes32",
          "name": "role",
          "type": "bytes32"
        },
        {
          "indexed": true,
          "internalType": "address",
          "name": "account",
          "type": "address"
        },
        {
          "indexed": true,
          "internalType": "address",
          "name": "sender",
          "type": "address"
        }
      ],
      "name": "RoleGranted",
      "type": "event"
    },
    {
      "anonymous": false,
      "inputs": [
        {
          "indexed": true,
          "internalType": "bytes32",
          "name": "role",
          "type": "bytes32"
        },
        {
          "indexed": true,
          "internalType": "address",
          "name": "account",
          "type": "address"
        },
        {
          "indexed": true,
          "internalType": "address",
          "name": "sender",
          "type": "address"
        }
      ],
      "name": "RoleRevoked",
      "type": "event"
    },
    {
      "anonymous": false,
      "inputs": [
        {
          "indexed": false,
          "internalType": "string",
          "name": "oldVersion",
          "type": "string"
        },
        {
          "indexed": false,
          "internalType": "string",
          "name": "newVersion",
          "type": "string"
        }
      ],
      "name": "VersionUpdated",
      "type": "event"
    },
    {
      "inputs": [],
      "name": "CHAIN_CONNECTOR_ROLE",
      "outputs": [
        {
          "internalType": "bytes32",
          "name": "",
          "type": "bytes32"
        }
      ],
      "stateMutability": "view",
      "type": "function"
    },
    {
      "inputs": [],
      "name": "CONSTANT_SETTER_ROLE",
      "outputs": [
        {
          "internalType": "bytes32",
          "name": "",
          "type": "bytes32"
        }
      ],
      "stateMutability": "view",
      "type": "function"
    },
    {
      "inputs": [],
      "name": "DEFAULT_ADMIN_ROLE",
      "outputs": [
        {
          "internalType": "bytes32",
          "name": "",
          "type": "bytes32"
        }
      ],
      "stateMutability": "view",
      "type": "function"
    },
    {
      "inputs": [],
      "name": "ETHERBASE",
      "outputs": [
        {
          "internalType": "contract IEtherbaseUpgradeable",
          "name": "",
          "type": "address"
        }
      ],
      "stateMutability": "view",
      "type": "function"
    },
    {
      "inputs": [],
      "name": "EXTRA_CONTRACT_REGISTRAR_ROLE",
      "outputs": [
        {
          "internalType": "bytes32",
          "name": "",
          "type": "bytes32"
        }
      ],
      "stateMutability": "view",
      "type": "function"
    },
    {
      "inputs": [],
      "name": "MAINNET_HASH",
      "outputs": [
        {
          "internalType": "bytes32",
          "name": "",
          "type": "bytes32"
        }
      ],
      "stateMutability": "view",
      "type": "function"
    },
    {
      "inputs": [],
      "name": "MESSAGES_LENGTH",
      "outputs": [
        {
          "internalType": "uint256",
          "name": "",
          "type": "uint256"
        }
      ],
      "stateMutability": "view",
      "type": "function"
    },
    {
      "inputs": [],
      "name": "MINIMUM_BALANCE",
      "outputs": [
        {
          "internalType": "uint256",
          "name": "",
          "type": "uint256"
        }
      ],
      "stateMutability": "view",
      "type": "function"
    },
    {
      "inputs": [],
      "name": "REVERT_REASON_LENGTH",
      "outputs": [
        {
          "internalType": "uint256",
          "name": "",
          "type": "uint256"
        }
      ],
      "stateMutability": "view",
      "type": "function"
    },
    {
      "inputs": [
        {
          "internalType": "string",
          "name": "chainName",
          "type": "string"
        }
      ],
      "name": "addConnectedChain",
      "outputs": [],
      "stateMutability": "nonpayable",
      "type": "function"
    },
    {
      "inputs": [
        {
          "internalType": "bytes32",
          "name": "",
          "type": "bytes32"
        }
      ],
      "name": "connectedChains",
      "outputs": [
        {
          "internalType": "uint256",
          "name": "incomingMessageCounter",
          "type": "uint256"
        },
        {
          "internalType": "uint256",
          "name": "outgoingMessageCounter",
          "type": "uint256"
        },
        {
          "internalType": "bool",
          "name": "inited",
          "type": "bool"
        }
      ],
      "stateMutability": "view",
      "type": "function"
    },
    {
      "inputs": [],
      "name": "gasLimit",
      "outputs": [
        {
          "internalType": "uint256",
          "name": "",
          "type": "uint256"
        }
      ],
      "stateMutability": "view",
      "type": "function"
    },
    {
      "inputs": [
        {
          "internalType": "bytes32",
          "name": "schainHash",
          "type": "bytes32"
        }
      ],
      "name": "getContractRegisteredLength",
      "outputs": [
        {
          "internalType": "uint256",
          "name": "",
          "type": "uint256"
        }
      ],
      "stateMutability": "view",
      "type": "function"
    },
    {
      "inputs": [
        {
          "internalType": "bytes32",
          "name": "schainHash",
          "type": "bytes32"
        },
        {
          "internalType": "uint256",
          "name": "from",
          "type": "uint256"
        },
        {
          "internalType": "uint256",
          "name": "to",
          "type": "uint256"
        }
      ],
      "name": "getContractRegisteredRange",
      "outputs": [
        {
          "internalType": "address[]",
          "name": "contractsInRange",
          "type": "address[]"
        }
      ],
      "stateMutability": "view",
      "type": "function"
    },
    {
      "inputs": [
        {
          "internalType": "string",
          "name": "fromSchainName",
          "type": "string"
        }
      ],
      "name": "getIncomingMessagesCounter",
      "outputs": [
        {
          "internalType": "uint256",
          "name": "",
          "type": "uint256"
        }
      ],
      "stateMutability": "view",
      "type": "function"
    },
    {
      "inputs": [
        {
          "internalType": "string",
          "name": "targetSchainName",
          "type": "string"
        }
      ],
      "name": "getOutgoingMessagesCounter",
      "outputs": [
        {
          "internalType": "uint256",
          "name": "",
          "type": "uint256"
        }
      ],
      "stateMutability": "view",
      "type": "function"
    },
    {
      "inputs": [
        {
          "internalType": "bytes32",
          "name": "role",
          "type": "bytes32"
        }
      ],
      "name": "getRoleAdmin",
      "outputs": [
        {
          "internalType": "bytes32",
          "name": "",
          "type": "bytes32"
        }
      ],
      "stateMutability": "view",
      "type": "function"
    },
    {
      "inputs": [
        {
          "internalType": "bytes32",
          "name": "role",
          "type": "bytes32"
        },
        {
          "internalType": "uint256",
          "name": "index",
          "type": "uint256"
        }
      ],
      "name": "getRoleMember",
      "outputs": [
        {
          "internalType": "address",
          "name": "",
          "type": "address"
        }
      ],
      "stateMutability": "view",
      "type": "function"
    },
    {
      "inputs": [
        {
          "internalType": "bytes32",
          "name": "role",
          "type": "bytes32"
        }
      ],
      "name": "getRoleMemberCount",
      "outputs": [
        {
          "internalType": "uint256",
          "name": "",
          "type": "uint256"
        }
      ],
      "stateMutability": "view",
      "type": "function"
    },
    {
      "inputs": [
        {
          "internalType": "bytes32",
          "name": "role",
          "type": "bytes32"
        },
        {
          "internalType": "address",
          "name": "account",
          "type": "address"
        }
      ],
      "name": "grantRole",
      "outputs": [],
      "stateMutability": "nonpayable",
      "type": "function"
    },
    {
      "inputs": [
        {
          "internalType": "bytes32",
          "name": "role",
          "type": "bytes32"
        },
        {
          "internalType": "address",
          "name": "account",
          "type": "address"
        }
      ],
      "name": "hasRole",
      "outputs": [
        {
          "internalType": "bool",
          "name": "",
          "type": "bool"
        }
      ],
      "stateMutability": "view",
      "type": "function"
    },
    {
      "inputs": [
        {
          "internalType": "contract IKeyStorage",
          "name": "blsKeyStorage",
          "type": "address"
        },
        {
          "internalType": "string",
          "name": "schainName",
          "type": "string"
        }
      ],
      "name": "initialize",
      "outputs": [],
      "stateMutability": "nonpayable",
      "type": "function"
    },
    {
      "inputs": [
        {
          "internalType": "bytes32",
          "name": "chainHash",
          "type": "bytes32"
        },
        {
          "internalType": "address[]",
          "name": "contracts",
          "type": "address[]"
        }
      ],
      "name": "initializeAllRegisteredContracts",
      "outputs": [],
      "stateMutability": "nonpayable",
      "type": "function"
    },
    {
      "inputs": [
        {
          "internalType": "uint256",
          "name": "newGasLimit",
          "type": "uint256"
        }
      ],
      "name": "initializeMessageProxy",
      "outputs": [],
      "stateMutability": "nonpayable",
      "type": "function"
    },
    {
      "inputs": [
        {
          "internalType": "string",
          "name": "schainName",
          "type": "string"
        }
      ],
      "name": "isConnectedChain",
      "outputs": [
        {
          "internalType": "bool",
          "name": "",
          "type": "bool"
        }
      ],
      "stateMutability": "view",
      "type": "function"
    },
    {
      "inputs": [
        {
          "internalType": "bytes32",
          "name": "schainHash",
          "type": "bytes32"
        },
        {
          "internalType": "address",
          "name": "contractAddress",
          "type": "address"
        }
      ],
      "name": "isContractRegistered",
      "outputs": [
        {
          "internalType": "bool",
          "name": "",
          "type": "bool"
        }
      ],
      "stateMutability": "view",
      "type": "function"
    },
    {
      "inputs": [],
      "name": "keyStorage",
      "outputs": [
        {
          "internalType": "contract IKeyStorage",
          "name": "",
          "type": "address"
        }
      ],
      "stateMutability": "view",
      "type": "function"
    },
    {
      "inputs": [
        {
          "internalType": "string",
          "name": "fromChainName",
          "type": "string"
        },
        {
          "internalType": "uint256",
          "name": "startingCounter",
          "type": "uint256"
        },
        {
          "components": [
            {
              "internalType": "address",
              "name": "sender",
              "type": "address"
            },
            {
              "internalType": "address",
              "name": "destinationContract",
              "type": "address"
            },
            {
              "internalType": "bytes",
              "name": "data",
              "type": "bytes"
            }
          ],
          "internalType": "struct IMessageProxy.Message[]",
          "name": "messages",
          "type": "tuple[]"
        },
        {
          "components": [
            {
              "internalType": "uint256[2]",
              "name": "blsSignature",
              "type": "uint256[2]"
            },
            {
              "internalType": "uint256",
              "name": "hashA",
              "type": "uint256"
            },
            {
              "internalType": "uint256",
              "name": "hashB",
              "type": "uint256"
            },
            {
              "internalType": "uint256",
              "name": "counter",
              "type": "uint256"
            }
          ],
          "internalType": "struct IMessageProxy.Signature",
          "name": "signature",
          "type": "tuple"
        }
      ],
      "name": "postIncomingMessages",
      "outputs": [],
      "stateMutability": "nonpayable",
      "type": "function"
    },
    {
      "inputs": [
        {
          "internalType": "bytes32",
          "name": "targetChainHash",
          "type": "bytes32"
        },
        {
          "internalType": "address",
          "name": "targetContract",
          "type": "address"
        },
        {
          "internalType": "bytes",
          "name": "data",
          "type": "bytes"
        }
      ],
      "name": "postOutgoingMessage",
      "outputs": [],
      "stateMutability": "nonpayable",
      "type": "function"
    },
    {
      "inputs": [
        {
          "internalType": "string",
          "name": "chainName",
          "type": "string"
        },
        {
          "internalType": "address",
          "name": "extraContract",
          "type": "address"
        }
      ],
      "name": "registerExtraContract",
      "outputs": [],
      "stateMutability": "nonpayable",
      "type": "function"
    },
    {
      "inputs": [
        {
          "internalType": "address",
          "name": "extraContract",
          "type": "address"
        }
      ],
      "name": "registerExtraContractForAll",
      "outputs": [],
      "stateMutability": "nonpayable",
      "type": "function"
    },
    {
      "inputs": [
        {
          "internalType": "string",
          "name": "chainName",
          "type": "string"
        }
      ],
      "name": "removeConnectedChain",
      "outputs": [],
      "stateMutability": "nonpayable",
      "type": "function"
    },
    {
      "inputs": [
        {
          "internalType": "string",
          "name": "chainName",
          "type": "string"
        },
        {
          "internalType": "address",
          "name": "extraContract",
          "type": "address"
        }
      ],
      "name": "removeExtraContract",
      "outputs": [],
      "stateMutability": "nonpayable",
      "type": "function"
    },
    {
      "inputs": [
        {
          "internalType": "address",
          "name": "extraContract",
          "type": "address"
        }
      ],
      "name": "removeExtraContractForAll",
      "outputs": [],
      "stateMutability": "nonpayable",
      "type": "function"
    },
    {
      "inputs": [
        {
          "internalType": "bytes32",
          "name": "role",
          "type": "bytes32"
        },
        {
          "internalType": "address",
          "name": "account",
          "type": "address"
        }
      ],
      "name": "renounceRole",
      "outputs": [],
      "stateMutability": "nonpayable",
      "type": "function"
    },
    {
      "inputs": [
        {
          "internalType": "bytes32",
          "name": "role",
          "type": "bytes32"
        },
        {
          "internalType": "address",
          "name": "account",
          "type": "address"
        }
      ],
      "name": "revokeRole",
      "outputs": [],
      "stateMutability": "nonpayable",
      "type": "function"
    },
    {
      "inputs": [],
      "name": "schainHash",
      "outputs": [
        {
          "internalType": "bytes32",
          "name": "",
          "type": "bytes32"
        }
      ],
      "stateMutability": "view",
      "type": "function"
    },
    {
      "inputs": [
        {
          "internalType": "uint256",
          "name": "newGasLimit",
          "type": "uint256"
        }
      ],
      "name": "setNewGasLimit",
      "outputs": [],
      "stateMutability": "nonpayable",
      "type": "function"
    },
    {
      "inputs": [
        {
          "internalType": "string",
          "name": "newVersion",
          "type": "string"
        }
      ],
      "name": "setVersion",
      "outputs": [],
      "stateMutability": "nonpayable",
      "type": "function"
    },
    {
      "inputs": [
        {
          "internalType": "bytes4",
          "name": "interfaceId",
          "type": "bytes4"
        }
      ],
      "name": "supportsInterface",
      "outputs": [
        {
          "internalType": "bool",
          "name": "",
          "type": "bool"
        }
      ],
      "stateMutability": "view",
      "type": "function"
    },
    {
      "inputs": [
        {
          "components": [
            {
              "internalType": "bytes32",
              "name": "dstChainHash",
              "type": "bytes32"
            },
            {
              "internalType": "uint256",
              "name": "msgCounter",
              "type": "uint256"
            },
            {
              "internalType": "address",
              "name": "srcContract",
              "type": "address"
            },
            {
              "internalType": "address",
              "name": "dstContract",
              "type": "address"
            },
            {
              "internalType": "bytes",
              "name": "data",
              "type": "bytes"
            }
          ],
          "internalType": "struct IMessageProxyForSchain.OutgoingMessageData",
          "name": "message",
          "type": "tuple"
        }
      ],
      "name": "verifyOutgoingMessageData",
      "outputs": [
        {
          "internalType": "bool",
          "name": "isValidMessage",
          "type": "bool"
        }
      ],
      "stateMutability": "view",
      "type": "function"
    },
    {
      "inputs": [
        {
          "internalType": "bytes32",
          "name": "hashedMessage",
          "type": "bytes32"
        },
        {
          "components": [
            {
              "internalType": "uint256[2]",
              "name": "blsSignature",
              "type": "uint256[2]"
            },
            {
              "internalType": "uint256",
              "name": "hashA",
              "type": "uint256"
            },
            {
              "internalType": "uint256",
              "name": "hashB",
              "type": "uint256"
            },
            {
              "internalType": "uint256",
              "name": "counter",
              "type": "uint256"
            }
          ],
          "internalType": "struct IMessageProxy.Signature",
          "name": "signature",
          "type": "tuple"
        }
      ],
      "name": "verifySignature",
      "outputs": [
        {
          "internalType": "bool",
          "name": "",
          "type": "bool"
        }
      ],
      "stateMutability": "view",
      "type": "function"
    },
    {
      "inputs": [],
      "name": "version",
      "outputs": [
        {
          "internalType": "string",
          "name": "",
          "type": "string"
        }
      ],
      "stateMutability": "view",
      "type": "function"
    }
  ],
  "bytecode": "0x608060405234801561001057600080fd5b506142b1806100206000396000f3fe608060405234801561001057600080fd5b50600436106102695760003560e01c80636a156b9a11610151578063bbc4e8c2116100c3578063e6ab840311610087578063e6ab84031461058b578063f2f63605146105da578063f399e22e146105ed578063f68016b714610600578063f79f795414610609578063f8c88a161461061c57600080fd5b8063bbc4e8c214610523578063bdb40cb01461054a578063ca15c87314610552578063cab010c914610565578063d547741f1461057857600080fd5b80639010d07c116101155780639010d07c146104bc57806391d14854146104cf57806394489202146104e2578063999ab9aa146104f5578063a217fddf14610508578063a8bb1b7d1461051057600080fd5b80636a156b9a1461044b5780636e2f37b01461047057806377fe0f3114610483578063788bc78c146104965780637aa38a7c146104a957600080fd5b80633b690b6b116101ea57806353498cdd116101ae57806353498cdd146103db57806354fd4d50146103ea578063603e5d13146103ff578063654d8828146104125780636660de1c1461042557806367ec60201461043857600080fd5b80633b690b6b146103845780633cdd2cc31461038d5780634d203859146103a0578063523c8ab6146103b357806352dc24ee146103c857600080fd5b8063248a9ca311610231578063248a9ca3146102f457806328c5e182146103175780632f2ff15d1461034957806336568abe1461035e5780633b597ffe1461037157600080fd5b806301ffc9a71461026e5780630fc307a81461029657806313c52260146102b7578063198e687c146102cc57806321488340146102d4575b600080fd5b61028161027c3660046137d3565b61062f565b60405190151581526020015b60405180910390f35b6102a96102a4366004613653565b61065a565b60405190815260200161028d565b6102a960008051602061423c83398151915281565b6102a9604081565b6102e76102e23660046137a7565b610671565b60405161028d9190613bfb565b6102a9610302366004613653565b60009081526065602052604090206001015490565b6102a96040516613585a5b9b995d60ca1b60208201526027016040516020818303038152906040528051906020012081565b61035c610357366004613685565b6107b0565b005b61035c61036c366004613685565b6107d7565b61035c61037f366004613653565b6107f9565b6102a960cd5481565b61035c61039b366004613917565b6108bf565b61035c6103ae366004613614565b6109ad565b6102a96000805160206141fc83398151915281565b6102816103d6366004613758565b610ae7565b6102a9670de0b6b3a764000081565b6103f2610afa565b60405161028d9190613c73565b61035c61040d36600461388d565b610b88565b610281610420366004613685565b610dc7565b61035c61043336600461370d565b610ddf565b6102a961044636600461384c565b610f8f565b61045862695d1f60891b81565b6040516001600160a01b03909116815260200161028d565b61035c61047e366004613653565b611008565b6102a961049136600461384c565b6110e6565b61035c6104a436600461384c565b61118c565b6102816104b73660046139d4565b61122b565b6104586104ca366004613785565b611265565b6102816104dd366004613685565b61127d565b61035c6104f03660046136b5565b6112a8565b610281610503366004613917565b61135e565b6102a9600081565b61035c61051e366004613614565b6113a7565b6102a97f96e3fc3be15159903e053027cff8a23f39a990e0194abcd8ac1cf1b355b8b93c81565b6102a9600a81565b6102a9610560366004613653565b6114a1565b61035c61057336600461394b565b6114b8565b61035c610586366004613685565b611543565b6105bd610599366004613653565b60c96020526000908152604090208054600182015460029092015490919060ff1683565b60408051938452602084019290925215159082015260600161028d565b61035c6105e836600461384c565b61154d565b61035c6105fb3660046137fd565b6115d5565b6102a960cb5481565b60cc54610458906001600160a01b031681565b61035c61062a36600461394b565b61171c565b60006001600160e01b03198216635a05180f60e01b14806106545750610654826117a7565b92915050565b600081815260d160205260408120610654906117dc565b6060818310801561068c5750600a6106898484613f85565b11155b80156106ae5750600084815260d1602052604090206106aa906117dc565b8211155b6106f45760405162461bcd60e51b815260206004820152601260248201527114985b99d9481a5cc81a5b98dbdc9c9958dd60721b60448201526064015b60405180910390fd5b6106fe8383613f85565b6001600160401b038111156107155761071561410b565b60405190808252806020026020018201604052801561073e578160200160208202803683370190505b509050825b828110156107a857600085815260d16020526040902061076390826117e6565b8261076e8684613f85565b8151811061077e5761077e6140f5565b6001600160a01b0390921660209283029190910190910152806107a081614084565b915050610743565b509392505050565b6107ba82826117f2565b60008281526097602052604090206107d29082611818565b505050565b6107e1828261182d565b60008281526097602052604090206107d290826118a7565b6108237f96e3fc3be15159903e053027cff8a23f39a990e0194abcd8ac1cf1b355b8b93c3361127d565b61087e5760405162461bcd60e51b815260206004820152602660248201527f4e6f7420656e6f756768207065726d697373696f6e7320746f2073657420636f6044820152651b9cdd185b9d60d21b60648201526084016106eb565b60cb5460408051918252602082018390527f8abddb75fd50f7583079c0b550ec7a54fa3fd8d5dd1d2dfdc473f7ce27e3b9ac910160405180910390a160cb55565b6108d760008051602061423c8339815191523361127d565b6108f35760405162461bcd60e51b81526004016106eb90613d3a565b6000816040516020016109069190613b46565b60405160208183030381529060405280519060200120905060405160200161093b906613585a5b9b995d60ca1b815260070190565b604051602081830303815290604052805190602001208114156109a05760405162461bcd60e51b815260206004820152601960248201527f4d61696e6e65742063616e6e6f742062652072656d6f7665640000000000000060448201526064016106eb565b6109a9826118bc565b5050565b6109c56000805160206141fc8339815191523361127d565b6109e15760405162461bcd60e51b81526004016106eb90613d6f565b6001600160a01b0381163b610a385760405162461bcd60e51b815260206004820152601f60248201527f476976656e2061646472657373206973206e6f74206120636f6e74726163740060448201526064016106eb565b610a548160d15b6000808052602091909152604090209061199f565b15610a715760405162461bcd60e51b81526004016106eb90613e9a565b6000805260d1602052610aa37efa5413e7b01fc543d01f0911de573ace463b956369df4472f39030e8d98b7782611818565b506040516001600160a01b03821681526000907f03bcd152926369e3cf05cb7af471a15d680e8ec5d20b13705048d14e94679365906020015b60405180910390a250565b6000610af383836119c1565b9392505050565b60d28054610b0790613fdf565b80601f0160208091040260200160405190810160405280929190818152602001828054610b3390613fdf565b8015610b805780601f10610b5557610100808354040283529160200191610b80565b820191906000526020600020905b815481529060010190602001808311610b6357829003601f168201915b505050505081565b60008686604051602001610b9d929190613b36565b60408051601f198184030181529181528151602092830120600081815260c990935291206002015490915060ff16610c125760405162461bcd60e51b815260206004820152601860248201527710da185a5b881a5cc81b9bdd081a5b9a5d1a585b1a5e995960421b60448201526064016106eb565b600a831115610c575760405162461bcd60e51b8152602060048201526011602482015270546f6f206d616e79206d6573736167657360781b60448201526064016106eb565b610c6d610c678585888b8b611a6e565b836119c1565b610cb95760405162461bcd60e51b815260206004820152601960248201527f5369676e6174757265206973206e6f742076657269666965640000000000000060448201526064016106eb565b600081815260c960205260409020548514610d3c5760405162461bcd60e51b815260206004820152603860248201527f5374617274696e6720636f756e746572206973206e6f74207175616c20746f2060448201527f696e636f6d696e67206d65737361676520636f756e746572000000000000000060648201526084016106eb565b60005b83811015610d9157610d7f82868684818110610d5d57610d5d6140f5565b9050602002810190610d6f9190613f24565b610d7a896001613f3a565b611be9565b80610d8981614084565b915050610d3f565b50600081815260c9602052604081208054859290610db0908490613f3a565b90915550610dbe9050611e0e565b50505050505050565b600082815260d160205260408120610af3908361199f565b610dea60003361127d565b610e365760405162461bcd60e51b815260206004820152601860248201527f53656e646572206973206e6f7420617574686f72697a6564000000000000000060448201526064016106eb565b60005b81811015610f8957600084815260ca6020526040812090848484818110610e6257610e626140f5565b9050602002016020810190610e779190613614565b6001600160a01b0316815260208101919091526040016000205460ff168015610edb5750610ed9838383818110610eb057610eb06140f5565b9050602002016020810190610ec59190613614565b600086815260d1602052604090209061199f565b155b15610f7757610f1e838383818110610ef557610ef56140f5565b9050602002016020810190610f0a9190613614565b600086815260d16020526040902090611818565b50600084815260ca6020526040812090848484818110610f4057610f406140f5565b9050602002016020810190610f559190613614565b6001600160a01b031681526020810191909152604001600020805460ff191690555b80610f8181614084565b915050610e39565b50505050565b6000808383604051602001610fa5929190613b36565b60408051601f198184030181529181528151602092830120600081815260c990935291206002015490915060ff16610fef5760405162461bcd60e51b81526004016106eb90613e06565b600090815260c960205260409020600101549392505050565b600054610100900460ff1680611021575060005460ff16155b61103d5760405162461bcd60e51b81526004016106eb90613db8565b600054610100900460ff1615801561105f576000805461ffff19166101011790555b611067611ff9565b611072600033612085565b61108a60008051602061423c83398151915233612085565b6110a26000805160206141fc83398151915233612085565b6110cc7f96e3fc3be15159903e053027cff8a23f39a990e0194abcd8ac1cf1b355b8b93c33612085565b60cb82905580156109a9576000805461ff00191690555050565b60008083836040516020016110fc929190613b36565b60408051601f198184030181529181528151602092830120600081815260c990935291206002015490915060ff166111765760405162461bcd60e51b815260206004820152601f60248201527f536f7572636520636861696e206973206e6f7420696e697469616c697a65640060448201526064016106eb565b600090815260c960205260409020549392505050565b61119760003361127d565b6111e35760405162461bcd60e51b815260206004820152601e60248201527f44454641554c545f41444d494e5f524f4c45206973207265717569726564000060448201526064016106eb565b7f22efc5f993dce37856b77dd72d7d7661032380c9728c4133f3c071c591bc6ca760d2838360405161121793929190613c86565b60405180910390a16107d260d283836133b3565b8051600090815260ce602090815260408083208285015184529091528120546112538361208f565b81141561125f57600191505b50919050565b6000828152609760205260408120610af390836117e6565b60009182526065602090815260408084206001600160a01b0393909316845291905290205460ff1690565b6112b3838383612105565b60006040518060a00160405280858152602001600160c96000888152602001908152602001600020600101546112e99190613f85565b81523360208201526001600160a01b038516604082015260600183905280519091506113148261208f565b600082815260ce6020908152604080832060d08084528285208054865291845291842094909455848352905281546001929190611352908490613f3a565b90915550505050505050565b600060c96000836040516020016113759190613b46565b60408051601f198184030181529181528151602092830120835290820192909252016000206002015460ff1692915050565b6113bf6000805160206141fc8339815191523361127d565b6113db5760405162461bcd60e51b81526004016106eb90613d6f565b6113e68160d1610a3f565b6114325760405162461bcd60e51b815260206004820181905260248201527f457874726120636f6e7472616374206973206e6f74207265676973746572656460448201526064016106eb565b6000805260d16020526114647efa5413e7b01fc543d01f0911de573ace463b956369df4472f39030e8d98b77826118a7565b506040516001600160a01b03821681526000907f4d393b64277bfc0b02e0459a74c316c7f22069352a678319fd8139ba4085e06190602001610adc565b6000818152609760205260408120610654906117dc565b6114d06000805160206141fc8339815191523361127d565b6114ec5760405162461bcd60e51b81526004016106eb90613d6f565b6000826040516020016114ff9190613b46565b60405160208183030381529060405280519060200120905060cd548114156115395760405162461bcd60e51b81526004016106eb90613e4a565b6107d281836121cb565b6107e1828261232b565b60008282604051602001611562929190613b36565b60405160208183030381529060405280519060200120905060cd548114156115cc5760405162461bcd60e51b815260206004820152601c60248201527f53636861696e2063616e6e6f7420636f6e6e65637420697473656c660000000060448201526064016106eb565b6107d281612351565b600054610100900460ff16806115ee575060005460ff16155b61160a5760405162461bcd60e51b81526004016106eb90613db8565b600054610100900460ff1615801561162c576000805461ffff19166101011790555b611638622dc6c0611008565b60cc80546001600160a01b0385166001600160a01b031990911617905560408051606081018252600080825260208083018290526001838501529251919260c99261169191016613585a5b9b995d60ca1b815260070190565b60408051808303601f19018152918152815160209283012083528282019390935290820160002083518155838201516001820155928201516002909301805460ff191693151593909317909255516116eb91849101613b46565b60408051601f19818403018152919052805160209091012060cd5580156107d2576000805461ff0019169055505050565b6117346000805160206141fc8339815191523361127d565b6117505760405162461bcd60e51b81526004016106eb90613d6f565b6000826040516020016117639190613b46565b60405160208183030381529060405280519060200120905060cd5481141561179d5760405162461bcd60e51b81526004016106eb90613e4a565b6107d28183612437565b60006001600160e01b03198216637965db0b60e01b148061065457506301ffc9a760e01b6001600160e01b0319831614610654565b6000610654825490565b6000610af383836124e2565b60008281526065602052604090206001015461180e813361250c565b6107d28383612570565b6000610af3836001600160a01b0384166125f6565b6001600160a01b038116331461189d5760405162461bcd60e51b815260206004820152602f60248201527f416363657373436f6e74726f6c3a2063616e206f6e6c792072656e6f756e636560448201526e103937b632b9903337b91039b2b63360891b60648201526084016106eb565b6109a98282612645565b6000610af3836001600160a01b0384166126ac565b6118d460008051602061423c8339815191523361127d565b6118f05760405162461bcd60e51b81526004016106eb90613d3a565b6000816040516020016119039190613b46565b60408051601f198184030181529181528151602092830120600081815260c990935291206002015490915060ff166119785760405162461bcd60e51b815260206004820152601860248201527710da185a5b881a5cc81b9bdd081a5b9a5d1a585b1a5e995960421b60448201526064016106eb565b600090815260c9602052604081208181556001810191909155600201805460ff1916905550565b6001600160a01b03811660009081526001830160205260408120541515610af3565b604080518082018252823581526020808401359082015260cc548251632aa77bd360e11b81528351600094610af3949388936080808a013594938a01359360608b0135936001600160a01b03169263554ef7a6926004808301939192829003018186803b158015611a3157600080fd5b505afa158015611a45573d6000803e3d6000fd5b505050506040513d601f19601f82011682018060405250810190611a699190613991565b6127a6565b6000808383604051602001611a84929190613b36565b60408051808303601f190181528282528051602091820120908301819052908201879052915060009060600160405160208183030381529060405280519060200120905060005b87811015611bdd5781898983818110611ae657611ae66140f5565b9050602002810190611af89190613f24565b611b06906020810190613614565b8a8a84818110611b1857611b186140f5565b9050602002810190611b2a9190613f24565b611b3b906040810190602001613614565b6040805160208101949094526001600160a01b0392831690840152166060820152608001604051602081830303815290604052898983818110611b8057611b806140f5565b9050602002810190611b929190613f24565b611ba0906040810190613ede565b604051602001611bb293929190613b0e565b6040516020818303038152906040528051906020012091508080611bd590614084565b915050611acb565b50979650505050505050565b611c0b611bfc6040840160208501613614565b6001600160a01b03163b151590565b611c79578060008051602061425c833981519152604051611c6c9060208082526026908201527f44657374696e6174696f6e20636f6e7472616374206973206e6f74206120636f6040820152651b9d1c9858dd60d21b606082015260800190565b60405180910390a2505050565b611c896040830160208401613614565b6001600160a01b031663884cee5a60cb5485856000016020810190611cae9190613614565b611cbb6040880188613ede565b6040518663ffffffff1660e01b8152600401611cda9493929190613c48565b600060405180830381600088803b158015611cf457600080fd5b5087f193505050508015611d06575060015b6107d257611d12614121565b806308c379a01415611d685750611d2761413d565b80611d325750611dc3565b8160008051602061425c833981519152611d4d836040612970565b604051611d5a9190613c73565b60405180910390a250505050565b634e487b711415611dc357611d7b6141c6565b90611d865750611dc3565b8160008051602061425c83398151915282604051602001611da991815260200190565b60408051601f1981840301815290829052611d5a91613c73565b3d808015611ded576040519150601f19603f3d011682016040523d82523d6000602084013e611df2565b606091505b508160008051602061425c833981519152611d4d836040612970565b60003a5a611e1c9190613f66565b611e27903331613f3a565b905062695d1f60891b803b15801590611f305750806001600160a01b03166391d14854826001600160a01b031663bc2a1e8d6040518163ffffffff1660e01b815260040160206040518083038186803b158015611e8357600080fd5b505afa158015611e97573d6000803e3d6000fd5b505050506040513d601f19601f82011682018060405250810190611ebb919061366c565b6040516001600160e01b031960e084901b168152600481019190915230602482015260440160206040518083038186803b158015611ef857600080fd5b505afa158015611f0c573d6000803e3d6000fd5b505050506040513d601f19601f82011682018060405250810190611f309190613631565b8015611f435750670de0b6b3a764000082105b156109a9576000611f5c83670de0b6b3a7640000613f85565b9050816001600160a01b031631811015611fcd5760405163204a3e9360e01b8152336004820152602481018290526001600160a01b0383169063204a3e93906044015b600060405180830381600087803b158015611fb957600080fd5b505af1158015610dbe573d6000803e3d6000fd5b604051630a79309b60e01b81523360048201526001600160a01b03831690630a79309b90602401611f9f565b600054610100900460ff1680612012575060005460ff16155b61202e5760405162461bcd60e51b81526004016106eb90613db8565b600054610100900460ff16158015612050576000805461ffff19166101011790555b612058612a3a565b612060612a3a565b612068612a3a565b612070612a3a565b8015612082576000805461ff00191690555b50565b6107ba8282612aa4565b6000808260000151836020015160001b846040015160601b6bffffffffffffffffffffffff1916856060015160601b6bffffffffffffffffffffffff191686608001516040516020016120e6959493929190613ad3565b60408051601f1981840301815291905280516020909101209392505050565b600083815260c9602052604090206002015460ff166121365760405162461bcd60e51b81526004016106eb90613e06565b61213f83612aae565b336001600160a01b031660c9600085815260200190815260200160002060010154847f803d7f3ca0e5f93fcce39fa29812ed57a95a151594966e17125220132741c6b08585604051612192929190613bd7565b60405180910390a4600160c9600085815260200190815260200160002060010160008282546121c19190613f3a565b9091555050505050565b6001600160a01b0381163b6122225760405162461bcd60e51b815260206004820152601f60248201527f476976656e2061646472657373206973206e6f74206120636f6e74726163740060448201526064016106eb565b61223e8160d15b6000858152602091909152604090209061199f565b1561225b5760405162461bcd60e51b81526004016106eb90613e9a565b6122668160d1610a3f565b156122cf5760405162461bcd60e51b815260206004820152603360248201527f457874726120636f6e747261637420697320616c7265616479207265676973746044820152726572656420666f7220616c6c20636861696e7360681b60648201526084016106eb565b600082815260d1602052604090206122e79082611818565b506040516001600160a01b038216815282907f03bcd152926369e3cf05cb7af471a15d680e8ec5d20b13705048d14e94679365906020015b60405180910390a25050565b600082815260656020526040902060010154612347813361250c565b6107d28383612645565b61236960008051602061423c8339815191523361127d565b6123855760405162461bcd60e51b81526004016106eb90613d3a565b600081815260c9602052604090206002015460ff16156123e75760405162461bcd60e51b815260206004820152601a60248201527f436861696e20697320616c726561647920636f6e6e656374656400000000000060448201526064016106eb565b6040805160608101825260008082526020808301828152600184860181815296845260c9909252939091209151825591519181019190915590516002909101805460ff1916911515919091179055565b6124428160d1612229565b61248e5760405162461bcd60e51b815260206004820181905260248201527f457874726120636f6e7472616374206973206e6f74207265676973746572656460448201526064016106eb565b600082815260d1602052604090206124a690826118a7565b506040516001600160a01b038216815282907f4d393b64277bfc0b02e0459a74c316c7f22069352a678319fd8139ba4085e0619060200161231f565b60008260000182815481106124f9576124f96140f5565b9060005260206000200154905092915050565b612516828261127d565b6109a95761252e816001600160a01b03166014612b1f565b612539836020612b1f565b60405160200161254a929190613b62565b60408051601f198184030181529082905262461bcd60e51b82526106eb91600401613c73565b61257a828261127d565b6109a95760008281526065602090815260408083206001600160a01b03851684529091529020805460ff191660011790556125b23390565b6001600160a01b0316816001600160a01b0316837f2f8788117e7eff1d82e926ec794901d17c78024a50270940304540a733656f0d60405160405180910390a45050565b600081815260018301602052604081205461263d57508154600181810184556000848152602080822090930184905584548482528286019093526040902091909155610654565b506000610654565b61264f828261127d565b156109a95760008281526065602090815260408083206001600160a01b0385168085529252808320805460ff1916905551339285917ff6391f5c32d9c69d2a47ea670b442974b53935d1edc7fd64eb21e047a839171b9190a45050565b600081815260018301602052604081205480156127955760006126d0600183613f85565b85549091506000906126e490600190613f85565b9050818114612749576000866000018281548110612704576127046140f5565b9060005260206000200154905080876000018481548110612727576127276140f5565b6000918252602080832090910192909255918252600188019052604090208390555b855486908061275a5761275a6140df565b600190038181906000526020600020016000905590558560010160008681526020019081526020016000206000905560019350505050610654565b6000915050610654565b5092915050565b60006127b187612cba565b6127f65760405162461bcd60e51b815260206004820152601660248201527514da59db985d1d5c99481a5cc81b9bdd081d985b1a5960521b60448201526064016106eb565b61280286868686612cf0565b61280e57506000612966565b600061281d8860200151612dde565b905061282d886000015182612e03565b61286a5760405162461bcd60e51b815260206004820152600e60248201526d5369676e206e6f7420696e20473160901b60448201526064016106eb565b6128748585612e03565b6128b15760405162461bcd60e51b815260206004820152600e60248201526d48617368206e6f7420696e20473160901b60448201526064016106eb565b60006128bb612e39565b90506128c684612ef9565b6129095760405162461bcd60e51b8152602060048201526014602482015273283ab13634b19025b2bc903737ba1034b710239960611b60448201526064016106eb565b6129618960000151838360000151602001518460000151600001518560200151602001518660200151600001518c8c8c60000151602001518d60000151600001518e60200151602001518f6020015160000151612f0d565b925050505b9695505050505050565b6060600083518310612983578351612985565b825b90506000816001600160401b038111156129a1576129a161410b565b6040519080825280601f01601f1916602001820160405280156129cb576020820181803683370190505b50905060005b82811015612a31578581815181106129eb576129eb6140f5565b602001015160f81c60f81b828281518110612a0857612a086140f5565b60200101906001600160f81b031916908160001a90535080612a2981614084565b9150506129d1565b50949350505050565b600054610100900460ff1680612a53575060005460ff16155b612a6f5760405162461bcd60e51b81526004016106eb90613db8565b600054610100900460ff16158015612070576000805461ffff19166101011790558015612082576000805461ff001916905550565b6109a98282612570565b612ab9600033610dc7565b80612ac95750612ac98133610dc7565b6120825760405162461bcd60e51b815260206004820152602160248201527f53656e64657220636f6e7472616374206973206e6f74207265676973746572656044820152601960fa1b60648201526084016106eb565b60606000612b2e836002613f66565b612b39906002613f3a565b6001600160401b03811115612b5057612b5061410b565b6040519080825280601f01601f191660200182016040528015612b7a576020820181803683370190505b509050600360fc1b81600081518110612b9557612b956140f5565b60200101906001600160f81b031916908160001a905350600f60fb1b81600181518110612bc457612bc46140f5565b60200101906001600160f81b031916908160001a9053506000612be8846002613f66565b612bf3906001613f3a565b90505b6001811115612c6b576f181899199a1a9b1b9c1cb0b131b232b360811b85600f1660108110612c2757612c276140f5565b1a60f81b828281518110612c3d57612c3d6140f5565b60200101906001600160f81b031916908160001a90535060049490941c93612c6481613fc8565b9050612bf6565b508315610af35760405162461bcd60e51b815260206004820181905260248201527f537472696e67733a20686578206c656e67746820696e73756666696369656e7460448201526064016106eb565b600060008051602061421c83398151915282600001511080156106545750506020015160008051602061421c8339815191521190565b60006064841115612d0357506000612dd6565b6000612d1d60008051602061421c8339815191528761409f565b905060008051602061421c833981519152612d388683613f3a565b612d42919061409f565b9050600060008051602061421c833981519152600360008051602061421c8339815191528460008051602061421c83398151915286870909089050612d96600260008051602061421c833981519152613f52565b841080612db457508060008051602061421c83398151915285860914155b80612dbf5750848214155b15612dcf57600092505050612dd6565b6001925050505b949350505050565b600060008051602061421c833981519152612df98382613f85565b610654919061409f565b600060008051602061421c83398151915280600381868188890909088180612e2d57612e2d6140c9565b84850914949350505050565b612e41613437565b50604080516080810182527f1800deef121f1e76426a00665e5c4479674322d4f75edadd46debd5cd992f6ed8183019081527f198e9393920d483a7260bfb731fb5d25f1aa493335a9e71297e485b7aef312c26060830152815281518083019092527f12c85ea5db8c6deb4aab71808dcb408fe3d1e7690c43d37b4ce6cc0166fa7daa82527f090689d0585ff075ec9e99ad690c3395bc4b313370b38ef355acdadcd122975b60208381019190915281019190915290565b600061065482600001518360200151612fdd565b600080612f1861347b565b8e8152602081018e9052604081018d9052606081018c9052608081018b905260a081018a905260c0810189905260e081018890526101008101879052610120810186905261014081018590526101608101849052612f7461349a565b602081610180846008600019fa925082612fc75760405162461bcd60e51b815260206004820152601460248201527314185a5c9a5b99c818da1958dac819985a5b195960621b60448201526064016106eb565b5115159f9e505050505050505050505050505050565b6000612fe983836130b1565b15612ff657506001610654565b6000613001836130e4565b90506000613094613071604080518082018252600080825260209182015281518083019092527f2b149d40ceb8aaae81be18991be06ac3b5b4c5e559dbefa33267e6dc24a138e582527e9713b03af0fed4cd2cafadeed8fdf4a74fa084e52d1852e4a2bd0685c315d29082015290565b61308e613087886130818a6130e4565b9061319a565b85906132ad565b906132ad565b80519091501580156130a857506020810151155b95945050505050565b81516000901580156130c557506020830151155b80156130d2575081516001145b8015610af35750506020015115919050565b604080518082019091526000808252602082015260008051602061421c8339815191526000816020850151855109905060008280613124576131246140c9565b8380613132576131326140c9565b8480613140576131406140c9565b6020880151613150600188613f85565b098751088480613162576131626140c9565b60208801518851080990506040518060400160405280828152602001848061318c5761318c6140c9565b848508905295945050505050565b6040805180820190915260008082526020820152600060008051602061421c83398151915290506000604051806040016040528083806131dc576131dc6140c9565b8651885109815260200183806131f4576131f46140c9565b8660200151886020015109905290508180613211576132116140c9565b828061321f5761321f6140c9565b602083015161322f600186613f85565b0982510883528180613243576132436140c9565b8280613251576132516140c9565b60208301518351086132639084613f85565b8380613271576132716140c9565b848061327f5761327f6140c9565b60208801518851088580613295576132956140c9565b60208a01518a51080908602084015250909392505050565b60408051808201909152600080825260208201528151835160008051602061421c83398151915291116132fe5780806132e8576132e86140c9565b83516132f49083613f85565b8551088252613333565b80818061330d5761330d6140c9565b85516133199084613f85565b8551086133269083613f85565b613330919061409f565b82525b826020015184602001511061336f578080613350576133506140c9565b602084015161335f9083613f85565b856020015108602083015261279f565b80818061337e5761337e6140c9565b602086015161338d9084613f85565b85602001510861339d9083613f85565b6133a7919061409f565b60208301525092915050565b8280546133bf90613fdf565b90600052602060002090601f0160209004810192826133e15760008555613427565b82601f106133fa5782800160ff19823516178555613427565b82800160010185558215613427579182015b8281111561342757823582559160200191906001019061340c565b506134339291506134b8565b5090565b60408051608081018252600091810182815260608201929092529081908152602001613476604051806040016040528060008152602001600081525090565b905290565b604051806101800160405280600c906020820280368337509192915050565b60405180602001604052806001906020820280368337509192915050565b5b8082111561343357600081556001016134b9565b60008083601f8401126134df57600080fd5b5081356001600160401b038111156134f657600080fd5b6020830191508360208260051b850101111561351157600080fd5b9250929050565b600082601f83011261352957600080fd5b81356001600160401b038111156135425761354261410b565b604051613559601f8301601f191660200182614058565b81815284602083860101111561356e57600080fd5b816020850160208301376000918101602001919091529392505050565b60008083601f84011261359d57600080fd5b5081356001600160401b038111156135b457600080fd5b60208301915083602082850101111561351157600080fd5b6000604082840312156135de57600080fd5b6040516135ea81614014565b80915082518152602083015160208201525092915050565b600060a0828403121561125f57600080fd5b60006020828403121561362657600080fd5b8135610af3816141e6565b60006020828403121561364357600080fd5b81518015158114610af357600080fd5b60006020828403121561366557600080fd5b5035919050565b60006020828403121561367e57600080fd5b5051919050565b6000806040838503121561369857600080fd5b8235915060208301356136aa816141e6565b809150509250929050565b6000806000606084860312156136ca57600080fd5b8335925060208401356136dc816141e6565b915060408401356001600160401b038111156136f757600080fd5b61370386828701613518565b9150509250925092565b60008060006040848603121561372257600080fd5b8335925060208401356001600160401b0381111561373f57600080fd5b61374b868287016134cd565b9497909650939450505050565b60008060c0838503121561376b57600080fd5b8235915061377c8460208501613602565b90509250929050565b6000806040838503121561379857600080fd5b50508035926020909101359150565b6000806000606084860312156137bc57600080fd5b505081359360208301359350604090920135919050565b6000602082840312156137e557600080fd5b81356001600160e01b031981168114610af357600080fd5b6000806040838503121561381057600080fd5b823561381b816141e6565b915060208301356001600160401b0381111561383657600080fd5b61384285828601613518565b9150509250929050565b6000806020838503121561385f57600080fd5b82356001600160401b0381111561387557600080fd5b6138818582860161358b565b90969095509350505050565b60008060008060008061010087890312156138a757600080fd5b86356001600160401b03808211156138be57600080fd5b6138ca8a838b0161358b565b90985096506020890135955060408901359150808211156138ea57600080fd5b506138f789828a016134cd565b909450925061390b90508860608901613602565b90509295509295509295565b60006020828403121561392957600080fd5b81356001600160401b0381111561393f57600080fd5b612dd684828501613518565b6000806040838503121561395e57600080fd5b82356001600160401b0381111561397457600080fd5b61398085828601613518565b92505060208301356136aa816141e6565b6000608082840312156139a357600080fd5b6040516139af81614014565b6139b984846135cc565b81526139c884604085016135cc565b60208201529392505050565b6000602082840312156139e657600080fd5b81356001600160401b03808211156139fd57600080fd5b9083019060a08286031215613a1157600080fd5b604051613a1d81614039565b82358152602083013560208201526040830135613a39816141e6565b60408201526060830135613a4c816141e6565b6060820152608083013582811115613a6357600080fd5b613a6f87828601613518565b60808301525095945050505050565b81835281816020850137506000828201602090810191909152601f909101601f19169091010190565b60008151808452613abf816020860160208601613f9c565b601f01601f19169290920160200192915050565b85815284602082015283604082015282606082015260008251613afd816080850160208701613f9c565b919091016080019695505050505050565b60008451613b20818460208901613f9c565b8201838582376000930192835250909392505050565b8183823760009101908152919050565b60008251613b58818460208701613f9c565b9190910192915050565b7f416363657373436f6e74726f6c3a206163636f756e7420000000000000000000815260008351613b9a816017850160208801613f9c565b7001034b99036b4b9b9b4b733903937b6329607d1b6017918401918201528351613bcb816028840160208801613f9c565b01602801949350505050565b6001600160a01b0383168152604060208201819052600090612dd690830184613aa7565b6020808252825182820181905260009190848201906040850190845b81811015613c3c5783516001600160a01b031683529284019291840191600101613c17565b50909695505050505050565b8481526001600160a01b03841660208201526060604082018190526000906129669083018486613a7e565b602081526000610af36020830184613aa7565b60408152600080855481600182811c915080831680613ca657607f831692505b6020808410821415613cc657634e487b7160e01b86526022600452602486fd5b6040880184905260608801828015613ce55760018114613cf657613d21565b60ff19871682528282019750613d21565b60008d81526020902060005b87811015613d1b57815484820152908601908401613d02565b83019850505b5050878603818901525050505050612966818587613a7e565b6020808252818101527f434841494e5f434f4e4e4543544f525f524f4c45206973207265717569726564604082015260600190565b60208082526029908201527f45585452415f434f4e54524143545f5245474953545241525f524f4c45206973604082015268081c995c5d5a5c995960ba1b606082015260800190565b6020808252602e908201527f496e697469616c697a61626c653a20636f6e747261637420697320616c72656160408201526d191e481a5b9a5d1a585b1a5e995960921b606082015260800190565b60208082526024908201527f44657374696e6174696f6e20636861696e206973206e6f7420696e697469616c6040820152631a5e995960e21b606082015260800190565b60208082526030908201527f44657374696e6174696f6e20636861696e20686173682063616e6e6f7420626560408201526f1032b8bab0b6103a379034ba39b2b63360811b606082015260800190565b60208082526024908201527f457874726120636f6e747261637420697320616c726561647920726567697374604082015263195c995960e21b606082015260800190565b6000808335601e19843603018112613ef557600080fd5b8301803591506001600160401b03821115613f0f57600080fd5b60200191503681900382131561351157600080fd5b60008235605e19833603018112613b5857600080fd5b60008219821115613f4d57613f4d6140b3565b500190565b600082613f6157613f616140c9565b500490565b6000816000190483118215151615613f8057613f806140b3565b500290565b600082821015613f9757613f976140b3565b500390565b60005b83811015613fb7578181015183820152602001613f9f565b83811115610f895750506000910152565b600081613fd757613fd76140b3565b506000190190565b600181811c90821680613ff357607f821691505b6020821081141561125f57634e487b7160e01b600052602260045260246000fd5b604081018181106001600160401b03821117156140335761403361410b565b60405250565b60a081018181106001600160401b03821117156140335761403361410b565b601f8201601f191681016001600160401b038111828210171561407d5761407d61410b565b6040525050565b6000600019821415614098576140986140b3565b5060010190565b6000826140ae576140ae6140c9565b500690565b634e487b7160e01b600052601160045260246000fd5b634e487b7160e01b600052601260045260246000fd5b634e487b7160e01b600052603160045260246000fd5b634e487b7160e01b600052603260045260246000fd5b634e487b7160e01b600052604160045260246000fd5b600060033d111561413a5760046000803e5060005160e01c5b90565b600060443d101561414b5790565b6040516003193d81016004833e81513d6001600160401b03816024840111818411171561417a57505050505090565b82850191508151818111156141925750505050505090565b843d87010160208285010111156141ac5750505050505090565b6141bb60208286010187614058565b509095945050505050565b60008060233d11156141e2576020600460003e50506000516001905b9091565b6001600160a01b038116811461208257600080fdfe6155b5aac15ce9aa193c0527a6f43be0a36a7e2e7496c2b615c0e5f92284277330644e72e131a029b85045b68181585d97816a916871ca8d3c208c16d87cfd472785f35fe7d8743aa971942d8474737bb31895d396eff2cc688a481e0221e1914b7d3908626050c0d998d657e4e6f31cb43ed736bf2b9a1a0192494537ca0e59a2646970667358221220ff3188474227a7b29544070c90549e4185d04ac57ae6aadabed10cfeefa0135e64736f6c63430008060033",
  "linkReferences": {},
  "deployedLinkReferences": {}
}