{
  "_format": "hh-sol-artifact-1",
  "contractName": "TokenManagerERC1155",
  "sourceName": "contracts/schain/TokenManagers/TokenManagerERC1155.sol",
  "abi": [
    {
      "anonymous": false,
      "inputs": [
        {
          "indexed": false,
          "internalType": "address",
          "name": "oldValue",
          "type": "address"
        },
        {
          "indexed": false,
          "internalType": "address",
          "name": "newValue",
          "type": "address"
        }
      ],
      "name": "DepositBoxWasChanged",
      "type": "event"
    },
    {
      "anonymous": false,
      "inputs": [
        {
          "indexed": true,
          "internalType": "bytes32",
          "name": "chainHash",
          "type": "bytes32"
        },
        {
          "indexed": true,
          "internalType": "address",
          "name": "erc1155OnMainnet",
          "type": "address"
        },
        {
          "indexed": true,
          "internalType": "address",
          "name": "erc1155OnSchain",
          "type": "address"
        }
      ],
      "name": "ERC1155TokenAdded",
      "type": "event"
    },
    {
      "anonymous": false,
      "inputs": [
        {
          "indexed": true,
          "internalType": "bytes32",
          "name": "chainHash",
          "type": "bytes32"
        },
        {
          "indexed": true,
          "internalType": "address",
          "name": "erc1155OnMainnet",
          "type": "address"
        },
        {
          "indexed": true,
          "internalType": "address",
          "name": "erc1155OnSchain",
          "type": "address"
        }
      ],
      "name": "ERC1155TokenCreated",
      "type": "event"
    },
    {
      "anonymous": false,
      "inputs": [
        {
          "indexed": true,
          "internalType": "bytes32",
          "name": "chainHash",
          "type": "bytes32"
        },
        {
          "indexed": true,
          "internalType": "address",
          "name": "contractOnMainnet",
          "type": "address"
        },
        {
          "indexed": false,
          "internalType": "uint256[]",
          "name": "ids",
          "type": "uint256[]"
        },
        {
          "indexed": false,
          "internalType": "uint256[]",
          "name": "amounts",
          "type": "uint256[]"
        }
      ],
      "name": "ERC1155TokenReady",
      "type": "event"
    },
    {
      "anonymous": false,
      "inputs": [
        {
          "indexed": true,
          "internalType": "bytes32",
          "name": "chainHash",
          "type": "bytes32"
        },
        {
          "indexed": true,
          "internalType": "address",
          "name": "erc1155OnMainnet",
          "type": "address"
        },
        {
          "indexed": true,
          "internalType": "address",
          "name": "erc1155OnSchain",
          "type": "address"
        },
        {
          "indexed": false,
          "internalType": "uint256[]",
          "name": "ids",
          "type": "uint256[]"
        },
        {
          "indexed": false,
          "internalType": "uint256[]",
          "name": "amounts",
          "type": "uint256[]"
        }
      ],
      "name": "ERC1155TokenReceived",
      "type": "event"
    },
    {
      "anonymous": false,
      "inputs": [
        {
          "indexed": true,
          "internalType": "bytes32",
          "name": "role",
          "type": "bytes32"
        },
        {
          "indexed": true,
          "internalType": "bytes32",
          "name": "previousAdminRole",
          "type": "bytes32"
        },
        {
          "indexed": true,
          "internalType": "bytes32",
          "name": "newAdminRole",
          "type": "bytes32"
        }
      ],
      "name": "RoleAdminChanged",
      "type": "event"
    },
    {
      "anonymous": false,
      "inputs": [
        {
          "indexed": true,
          "internalType": "bytes32",
          "name": "role",
          "type": "bytes32"
        },
        {
          "indexed": true,
          "internalType": "address",
          "name": "account",
          "type": "address"
        },
        {
          "indexed": true,
          "internalType": "address",
          "name": "sender",
          "type": "address"
        }
      ],
      "name": "RoleGranted",
      "type": "event"
    },
    {
      "anonymous": false,
      "inputs": [
        {
          "indexed": true,
          "internalType": "bytes32",
          "name": "role",
          "type": "bytes32"
        },
        {
          "indexed": true,
          "internalType": "address",
          "name": "account",
          "type": "address"
        },
        {
          "indexed": true,
          "internalType": "address",
          "name": "sender",
          "type": "address"
        }
      ],
      "name": "RoleRevoked",
      "type": "event"
    },
    {
      "inputs": [],
      "name": "AUTOMATIC_DEPLOY_ROLE",
      "outputs": [
        {
          "internalType": "bytes32",
          "name": "",
          "type": "bytes32"
        }
      ],
      "stateMutability": "view",
      "type": "function"
    },
    {
      "inputs": [],
      "name": "DEFAULT_ADMIN_ROLE",
      "outputs": [
        {
          "internalType": "bytes32",
          "name": "",
          "type": "bytes32"
        }
      ],
      "stateMutability": "view",
      "type": "function"
    },
    {
      "inputs": [],
      "name": "MAINNET_HASH",
      "outputs": [
        {
          "internalType": "bytes32",
          "name": "",
          "type": "bytes32"
        }
      ],
      "stateMutability": "view",
      "type": "function"
    },
    {
      "inputs": [],
      "name": "MAINNET_NAME",
      "outputs": [
        {
          "internalType": "string",
          "name": "",
          "type": "string"
        }
      ],
      "stateMutability": "view",
      "type": "function"
    },
    {
      "inputs": [],
      "name": "TOKEN_REGISTRAR_ROLE",
      "outputs": [
        {
          "internalType": "bytes32",
          "name": "",
          "type": "bytes32"
        }
      ],
      "stateMutability": "view",
      "type": "function"
    },
    {
      "inputs": [
        {
          "internalType": "string",
          "name": "targetChainName",
          "type": "string"
        },
        {
          "internalType": "address",
          "name": "erc1155OnMainnet",
          "type": "address"
        },
        {
          "internalType": "address",
          "name": "erc1155OnSchain",
          "type": "address"
        }
      ],
      "name": "addERC1155TokenByOwner",
      "outputs": [],
      "stateMutability": "nonpayable",
      "type": "function"
    },
    {
      "inputs": [
        {
          "internalType": "string",
          "name": "schainName",
          "type": "string"
        },
        {
          "internalType": "address",
          "name": "newTokenManager",
          "type": "address"
        }
      ],
      "name": "addTokenManager",
      "outputs": [],
      "stateMutability": "nonpayable",
      "type": "function"
    },
    {
      "inputs": [
        {
          "internalType": "contract ERC1155OnChain",
          "name": "",
          "type": "address"
        }
      ],
      "name": "addedClones",
      "outputs": [
        {
          "internalType": "bool",
          "name": "",
          "type": "bool"
        }
      ],
      "stateMutability": "view",
      "type": "function"
    },
    {
      "inputs": [],
      "name": "automaticDeploy",
      "outputs": [
        {
          "internalType": "bool",
          "name": "",
          "type": "bool"
        }
      ],
      "stateMutability": "view",
      "type": "function"
    },
    {
      "inputs": [
        {
          "internalType": "address",
          "name": "newDepositBox",
          "type": "address"
        }
      ],
      "name": "changeDepositBoxAddress",
      "outputs": [],
      "stateMutability": "nonpayable",
      "type": "function"
    },
    {
      "inputs": [
        {
          "internalType": "bytes32",
          "name": "",
          "type": "bytes32"
        },
        {
          "internalType": "address",
          "name": "",
          "type": "address"
        }
      ],
      "name": "clonesErc1155",
      "outputs": [
        {
          "internalType": "contract ERC1155OnChain",
          "name": "",
          "type": "address"
        }
      ],
      "stateMutability": "view",
      "type": "function"
    },
    {
      "inputs": [],
      "name": "communityLocker",
      "outputs": [
        {
          "internalType": "contract ICommunityLocker",
          "name": "",
          "type": "address"
        }
      ],
      "stateMutability": "view",
      "type": "function"
    },
    {
      "inputs": [],
      "name": "depositBox",
      "outputs": [
        {
          "internalType": "address",
          "name": "",
          "type": "address"
        }
      ],
      "stateMutability": "view",
      "type": "function"
    },
    {
      "inputs": [
        {
          "internalType": "address",
          "name": "",
          "type": "address"
        }
      ],
      "name": "deprecatedClonesErc1155",
      "outputs": [
        {
          "internalType": "contract ERC1155OnChain",
          "name": "",
          "type": "address"
        }
      ],
      "stateMutability": "view",
      "type": "function"
    },
    {
      "inputs": [],
      "name": "disableAutomaticDeploy",
      "outputs": [],
      "stateMutability": "nonpayable",
      "type": "function"
    },
    {
      "inputs": [],
      "name": "enableAutomaticDeploy",
      "outputs": [],
      "stateMutability": "nonpayable",
      "type": "function"
    },
    {
      "inputs": [
        {
          "internalType": "address",
          "name": "contractOnMainnet",
          "type": "address"
        },
        {
          "internalType": "uint256",
          "name": "id",
          "type": "uint256"
        },
        {
          "internalType": "uint256",
          "name": "amount",
          "type": "uint256"
        }
      ],
      "name": "exitToMainERC1155",
      "outputs": [],
      "stateMutability": "nonpayable",
      "type": "function"
    },
    {
      "inputs": [
        {
          "internalType": "address",
          "name": "contractOnMainnet",
          "type": "address"
        },
        {
          "internalType": "uint256[]",
          "name": "ids",
          "type": "uint256[]"
        },
        {
          "internalType": "uint256[]",
          "name": "amounts",
          "type": "uint256[]"
        }
      ],
      "name": "exitToMainERC1155Batch",
      "outputs": [],
      "stateMutability": "nonpayable",
      "type": "function"
    },
    {
      "inputs": [
        {
          "internalType": "bytes32",
          "name": "role",
          "type": "bytes32"
        }
      ],
      "name": "getRoleAdmin",
      "outputs": [
        {
          "internalType": "bytes32",
          "name": "",
          "type": "bytes32"
        }
      ],
      "stateMutability": "view",
      "type": "function"
    },
    {
      "inputs": [
        {
          "internalType": "bytes32",
          "name": "role",
          "type": "bytes32"
        },
        {
          "internalType": "uint256",
          "name": "index",
          "type": "uint256"
        }
      ],
      "name": "getRoleMember",
      "outputs": [
        {
          "internalType": "address",
          "name": "",
          "type": "address"
        }
      ],
      "stateMutability": "view",
      "type": "function"
    },
    {
      "inputs": [
        {
          "internalType": "bytes32",
          "name": "role",
          "type": "bytes32"
        }
      ],
      "name": "getRoleMemberCount",
      "outputs": [
        {
          "internalType": "uint256",
          "name": "",
          "type": "uint256"
        }
      ],
      "stateMutability": "view",
      "type": "function"
    },
    {
      "inputs": [
        {
          "internalType": "bytes32",
          "name": "role",
          "type": "bytes32"
        },
        {
          "internalType": "address",
          "name": "account",
          "type": "address"
        }
      ],
      "name": "grantRole",
      "outputs": [],
      "stateMutability": "nonpayable",
      "type": "function"
    },
    {
      "inputs": [
        {
          "internalType": "bytes32",
          "name": "role",
          "type": "bytes32"
        },
        {
          "internalType": "address",
          "name": "account",
          "type": "address"
        }
      ],
      "name": "hasRole",
      "outputs": [
        {
          "internalType": "bool",
          "name": "",
          "type": "bool"
        }
      ],
      "stateMutability": "view",
      "type": "function"
    },
    {
      "inputs": [
        {
          "internalType": "string",
          "name": "schainName",
          "type": "string"
        }
      ],
      "name": "hasTokenManager",
      "outputs": [
        {
          "internalType": "bool",
          "name": "",
          "type": "bool"
        }
      ],
      "stateMutability": "view",
      "type": "function"
    },
    {
      "inputs": [
        {
          "internalType": "string",
          "name": "newChainName",
          "type": "string"
        },
        {
          "internalType": "contract IMessageProxyForSchain",
          "name": "newMessageProxy",
          "type": "address"
        },
        {
          "internalType": "contract ITokenManagerLinker",
          "name": "newIMALinker",
          "type": "address"
        },
        {
          "internalType": "contract ICommunityLocker",
          "name": "newCommunityLocker",
          "type": "address"
        },
        {
          "internalType": "address",
          "name": "newDepositBox",
          "type": "address"
        }
      ],
      "name": "initialize",
      "outputs": [],
      "stateMutability": "nonpayable",
      "type": "function"
    },
    {
      "inputs": [
        {
          "internalType": "address[]",
          "name": "contracts",
          "type": "address[]"
        }
      ],
      "name": "initializeAllClonesERC1155",
      "outputs": [],
      "stateMutability": "nonpayable",
      "type": "function"
    },
    {
      "inputs": [
        {
          "internalType": "string",
          "name": "newSchainName",
          "type": "string"
        },
        {
          "internalType": "contract IMessageProxyForSchain",
          "name": "newMessageProxy",
          "type": "address"
        },
        {
          "internalType": "contract ITokenManagerLinker",
          "name": "newIMALinker",
          "type": "address"
        },
        {
          "internalType": "contract ICommunityLocker",
          "name": "newCommunityLocker",
          "type": "address"
        },
        {
          "internalType": "address",
          "name": "newDepositBox",
          "type": "address"
        }
      ],
      "name": "initializeTokenManager",
      "outputs": [],
      "stateMutability": "nonpayable",
      "type": "function"
    },
    {
      "inputs": [],
      "name": "messageProxy",
      "outputs": [
        {
          "internalType": "contract IMessageProxyForSchain",
          "name": "",
          "type": "address"
        }
      ],
      "stateMutability": "view",
      "type": "function"
    },
    {
      "inputs": [
        {
          "internalType": "address",
          "name": "operator",
          "type": "address"
        },
        {
          "internalType": "address",
          "name": "",
          "type": "address"
        },
        {
          "internalType": "uint256[]",
          "name": "",
          "type": "uint256[]"
        },
        {
          "internalType": "uint256[]",
          "name": "",
          "type": "uint256[]"
        },
        {
          "internalType": "bytes",
          "name": "",
          "type": "bytes"
        }
      ],
      "name": "onERC1155BatchReceived",
      "outputs": [
        {
          "internalType": "bytes4",
          "name": "",
          "type": "bytes4"
        }
      ],
      "stateMutability": "view",
      "type": "function"
    },
    {
      "inputs": [
        {
          "internalType": "address",
          "name": "operator",
          "type": "address"
        },
        {
          "internalType": "address",
          "name": "",
          "type": "address"
        },
        {
          "internalType": "uint256",
          "name": "",
          "type": "uint256"
        },
        {
          "internalType": "uint256",
          "name": "",
          "type": "uint256"
        },
        {
          "internalType": "bytes",
          "name": "",
          "type": "bytes"
        }
      ],
      "name": "onERC1155Received",
      "outputs": [
        {
          "internalType": "bytes4",
          "name": "",
          "type": "bytes4"
        }
      ],
      "stateMutability": "view",
      "type": "function"
    },
    {
      "inputs": [
        {
          "internalType": "bytes32",
          "name": "fromChainHash",
          "type": "bytes32"
        },
        {
          "internalType": "address",
          "name": "sender",
          "type": "address"
        },
        {
          "internalType": "bytes",
          "name": "data",
          "type": "bytes"
        }
      ],
      "name": "postMessage",
      "outputs": [],
      "stateMutability": "nonpayable",
      "type": "function"
    },
    {
      "inputs": [
        {
          "internalType": "string",
          "name": "schainName",
          "type": "string"
        }
      ],
      "name": "removeTokenManager",
      "outputs": [],
      "stateMutability": "nonpayable",
      "type": "function"
    },
    {
      "inputs": [
        {
          "internalType": "bytes32",
          "name": "role",
          "type": "bytes32"
        },
        {
          "internalType": "address",
          "name": "account",
          "type": "address"
        }
      ],
      "name": "renounceRole",
      "outputs": [],
      "stateMutability": "nonpayable",
      "type": "function"
    },
    {
      "inputs": [
        {
          "internalType": "bytes32",
          "name": "role",
          "type": "bytes32"
        },
        {
          "internalType": "address",
          "name": "account",
          "type": "address"
        }
      ],
      "name": "revokeRole",
      "outputs": [],
      "stateMutability": "nonpayable",
      "type": "function"
    },
    {
      "inputs": [],
      "name": "schainHash",
      "outputs": [
        {
          "internalType": "bytes32",
          "name": "",
          "type": "bytes32"
        }
      ],
      "stateMutability": "view",
      "type": "function"
    },
    {
      "inputs": [
        {
          "internalType": "bytes4",
          "name": "interfaceId",
          "type": "bytes4"
        }
      ],
      "name": "supportsInterface",
      "outputs": [
        {
          "internalType": "bool",
          "name": "",
          "type": "bool"
        }
      ],
      "stateMutability": "view",
      "type": "function"
    },
    {
      "inputs": [],
      "name": "tokenManagerLinker",
      "outputs": [
        {
          "internalType": "contract ITokenManagerLinker",
          "name": "",
          "type": "address"
        }
      ],
      "stateMutability": "view",
      "type": "function"
    },
    {
      "inputs": [
        {
          "internalType": "bytes32",
          "name": "",
          "type": "bytes32"
        }
      ],
      "name": "tokenManagers",
      "outputs": [
        {
          "internalType": "address",
          "name": "",
          "type": "address"
        }
      ],
      "stateMutability": "view",
      "type": "function"
    },
    {
      "inputs": [
        {
          "internalType": "string",
          "name": "targetSchainName",
          "type": "string"
        },
        {
          "internalType": "address",
          "name": "contractOnMainnet",
          "type": "address"
        },
        {
          "internalType": "uint256",
          "name": "id",
          "type": "uint256"
        },
        {
          "internalType": "uint256",
          "name": "amount",
          "type": "uint256"
        }
      ],
      "name": "transferToSchainERC1155",
      "outputs": [],
      "stateMutability": "nonpayable",
      "type": "function"
    },
    {
      "inputs": [
        {
          "internalType": "string",
          "name": "targetSchainName",
          "type": "string"
        },
        {
          "internalType": "address",
          "name": "contractOnMainnet",
          "type": "address"
        },
        {
          "internalType": "uint256[]",
          "name": "ids",
          "type": "uint256[]"
        },
        {
          "internalType": "uint256[]",
          "name": "amounts",
          "type": "uint256[]"
        }
      ],
      "name": "transferToSchainERC1155Batch",
      "outputs": [],
      "stateMutability": "nonpayable",
      "type": "function"
    },
    {
      "inputs": [
        {
          "internalType": "bytes32",
          "name": "",
          "type": "bytes32"
        },
        {
          "internalType": "address",
          "name": "",
          "type": "address"
        },
        {
          "internalType": "uint256",
          "name": "",
          "type": "uint256"
        }
      ],
      "name": "transferredAmount",
      "outputs": [
        {
          "internalType": "uint256",
          "name": "",
          "type": "uint256"
        }
      ],
      "stateMutability": "view",
      "type": "function"
    }
  ],
  "bytecode": "0x608060405234801561001057600080fd5b5061873d80620000216000396000f3fe60806040523480156200001157600080fd5b5060043610620002855760003560e01c80636d6112861162000161578063c0e312dc11620000d3578063d547741f1162000092578063d547741f146200065a578063dec2deb61462000671578063e3e50fa41462000686578063edcc12b514620006b2578063f23a6e6114620006c9578063f5b52e1f14620006e057600080fd5b8063c0e312dc14620005d6578063c5d7666414620005ed578063ca15c8731462000604578063cb703bff146200061b578063cc5b715b146200063257600080fd5b806391d14854116200012057806391d148541462000555578063a217fddf146200056c578063aebaaca91462000575578063b9581c50146200059b578063bc197c8114620005a557600080fd5b80636d61128614620004e85780636d6c68e614620004fc578063836909171462000510578063884cee5a14620005275780639010d07c146200053e57600080fd5b80632dc151de11620001fb5780633fa194ce11620001ba5780633fa194ce146200045957806350f4428014620004705780635573b8b614620004a657806357157cd914620004ba5780636ce681d214620004d157600080fd5b80632dc151de14620003f65780632f2ff15d146200040a57806336568abe146200042157806339927cf914620004385780633b690b6b146200044f57600080fd5b80631420de3f11620002485780631420de3f146200033557806315ecfe5e1462000378578063248a9ca314620003af57806328c5e18214620003d55780632d32926214620003df57600080fd5b806301ffc9a7146200028a578063029996b814620002b65780630b885ac314620002c25780630f1a8f7414620002d95780631131b66a146200031e575b600080fd5b620002a16200029b366004620047a0565b620006f7565b60405190151581526020015b60405180910390f35b620002c062000725565b005b620002c0620002d336600462004a93565b6200077d565b62000305620002ea36600462004694565b60ce602052600090815260409020546001600160a01b031681565b6040516001600160a01b039091168152602001620002ad565b620002c06200032f3660046200462b565b62000803565b620003696200034636600462004742565b60d260209081526000938452604080852082529284528284209052825290205481565b604051908152602001620002ad565b6200030562000389366004620046ae565b60d16020908152600092835260408084209091529082529020546001600160a01b031681565b62000369620003c036600462004694565b60009081526065602052604090206001015490565b6200036962000ae8565b620002c0620003f0366004620049a8565b62000b33565b60ca5462000305906001600160a01b031681565b620002c06200041b366004620046ae565b62000cec565b620002c062000432366004620046ae565b62000d12565b620002a162000449366004620047ea565b62000d38565b6200036960cc5481565b62000369600080516020620086e883398151915281565b620004976040518060400160405280600781526020016613585a5b9b995d60ca1b81525081565b604051620002ad9190620050fd565b60c95462000305906001600160a01b031681565b620002c0620004cb366004620048ee565b62000d95565b620002c0620004e236600462004a93565b62000f52565b60cd5462000305906001600160a01b031681565b60cb5462000305906001600160a01b031681565b620002c06200052136600462004568565b62001127565b620002c062000538366004620046e1565b620011f3565b620003056200054f3660046200477d565b620013b5565b620002a162000566366004620046ae565b620013d6565b62000369600081565b620002a162000586366004620043f9565b60d06020526000908152604090205460ff1681565b620002c062001401565b620005bc620005b636600462004419565b6200144a565b6040516001600160e01b03199091168152602001620002ad565b620002c0620005e7366004620047ea565b620014d4565b620002c0620005fe3660046200487f565b620015f2565b620003696200061536600462004694565b6200191b565b620002c06200062c36600462004823565b62001934565b620003697ffda70c2cc66a36c14884ee85424961f51b1d92b4494751699b6d105b3bcbcba881565b620002c06200066b366004620046ae565b62001a8c565b60cd54620002a190600160a01b900460ff1681565b6200030562000697366004620043f9565b60cf602052600090815260409020546001600160a01b031681565b620002c0620006c3366004620043f9565b62001a98565b620005bc620006da366004620044e5565b62001bb4565b620002c0620006f1366004620045f3565b62001c3c565b60006001600160e01b0319821663112fc36360e01b14806200071f57506200071f8262001cff565b92915050565b62000740600080516020620086e883398151915233620013d6565b620007685760405162461bcd60e51b81526004016200075f9062005199565b60405180910390fd5b60cd805460ff60a01b1916600160a01b179055565b600054610100900460ff168062000797575060005460ff16155b620007b65760405162461bcd60e51b81526004016200075f90620051da565b600054610100900460ff16158015620007d9576000805461ffff19166101011790555b620007e8868686868662000f52565b8015620007fb576000805461ff00191690555b505050505050565b62000810600033620013d6565b6200085e5760405162461bcd60e51b815260206004820152601860248201527f53656e646572206973206e6f7420617574686f72697a6564000000000000000060448201526064016200075f565b60005b8181101562000ae357620008c160cf6000858585818110620008875762000887620054f3565b90506020020160208101906200089e9190620043f9565b6001600160a01b039081168252602082019290925260400160002054163b151590565b80156200094057506200093e60d160006040518060400160405280600781526020016613585a5b9b995d60ca1b81525060405160200162000903919062004e14565b6040516020818303038152906040528051906020012081526020019081526020016000206000858585818110620008875762000887620054f3565b155b1562000ace5760cf60008484848181106200095f576200095f620054f3565b9050602002016020810190620009769190620043f9565b6001600160a01b03166001600160a01b0316815260200190815260200160002060009054906101000a90046001600160a01b031660d160006040518060400160405280600781526020016613585a5b9b995d60ca1b815250604051602001620009e0919062004e14565b604051602081830303815290604052805190602001208152602001908152602001600020600085858581811062000a1b5762000a1b620054f3565b905060200201602081019062000a329190620043f9565b6001600160a01b03166001600160a01b0316815260200190815260200160002060006101000a8154816001600160a01b0302191690836001600160a01b0316021790555060cf600084848481811062000a8f5762000a8f620054f3565b905060200201602081019062000aa69190620043f9565b6001600160a01b03168152602081019190915260400160002080546001600160a01b03191690555b8062000ada8162005470565b91505062000861565b505050565b6040518060400160405280600781526020016613585a5b9b995d60ca1b81525060405160200162000b1a919062004e14565b6040516020818303038152906040528051906020012081565b84848080601f016020809104026020016040519081016040528093929190818152602001838380828437600092018290525060405133945090925062000b7f9150849060200162004e14565b60408051601f1981840301815282825280516020918201208383018352600784526613585a5b9b995d60ca1b84830152915191935062000bc192910162004e14565b6040516020818303038152906040528051906020012081141562000bf95760405162461bcd60e51b81526004016200075f9062005149565b6001600160a01b03821662000c515760405162461bcd60e51b815260206004820152601a60248201527f496e636f7272656374207265636569766572206164647265737300000000000060448201526064016200075f565b600081815260ce60205260409020546001600160a01b031662000c885760405162461bcd60e51b81526004016200075f9062005112565b6000888860405160200162000c9f92919062004e04565b60408051601f198184030181529181528151602092830120600081815260ce90935291205490915062000ce19082906001600160a01b031689338a8a62001d27565b505050505050505050565b62000cf8828262002010565b600082815260976020526040902062000ae390826200203a565b62000d1e828262002051565b600082815260976020526040902062000ae39082620020d3565b6000806001600160a01b031660ce6000858560405160200162000d5d92919062004e04565b60408051808303601f19018152918152815160209283012083529082019290925201600020546001600160a01b031614159392505050565b86868080601f016020809104026020016040519081016040528093929190818152602001838380828437600092018290525060405133945090925062000de19150849060200162004e14565b60408051601f1981840301815282825280516020918201208383018352600784526613585a5b9b995d60ca1b84830152915191935062000e2392910162004e14565b6040516020818303038152906040528051906020012081141562000e5b5760405162461bcd60e51b81526004016200075f9062005149565b6001600160a01b03821662000eb35760405162461bcd60e51b815260206004820152601a60248201527f496e636f7272656374207265636569766572206164647265737300000000000060448201526064016200075f565b600081815260ce60205260409020546001600160a01b031662000eea5760405162461bcd60e51b81526004016200075f9062005112565b60008a8a60405160200162000f0192919062004e04565b60408051601f198184030181529181528151602092830120600081815260ce90935291205490915062000f459082906001600160a01b03168b338c8c8c8c620020ea565b5050505050505050505050565b600054610100900460ff168062000f6c575060005460ff16155b62000f8b5760405162461bcd60e51b81526004016200075f90620051da565b600054610100900460ff1615801562000fae576000805461ffff19166101011790555b6001600160a01b038216620010065760405162461bcd60e51b815260206004820181905260248201527f4465706f736974426f7820616464726573732068617320746f2062652073657460448201526064016200075f565b620010106200248e565b6200101d60003362002528565b62001038600080516020620086e88339815191523362002528565b620010647ffda70c2cc66a36c14884ee85424961f51b1d92b4494751699b6d105b3bcbcba83362002528565b8560405160200162001077919062004e14565b60408051601f19818403018152828252805160209182012060cc5560c980546001600160a01b038a81166001600160a01b03199283161790925560ca80548a841690831617905560cb805489841690831617905560cd8054928816929091168217905560008452908301527fc968af77923193016f61d74ba6827296db5e1f37ec4fab3ad1ef20e193395e59910160405180910390a18015620007fb576000805461ff0019169055505050505050565b60cb546040516311be333d60e11b81523360048201526001600160a01b039091169063237c667a90602401600060405180830381600087803b1580156200116d57600080fd5b505af115801562001182573d6000803e3d6000fd5b50505050620011ec6040518060400160405280600781526020016613585a5b9b995d60ca1b815250604051602001620011bc919062004e14565b60408051601f19818403018152919052805160209091012060cd546001600160a01b0316873388888888620020ea565b5050505050565b60c9546001600160a01b031633146200124f5760405162461bcd60e51b815260206004820152601c60248201527f53656e646572206973206e6f742061204d65737361676550726f78790000000060448201526064016200075f565b838360cc5482141580156200126b57506200126b828262002534565b620012b95760405162461bcd60e51b815260206004820152601b60248201527f526563656976657220636861696e20697320696e636f7272656374000000000060448201526064016200075f565b6000620012c78585620025bf565b90506000600982600c811115620012e257620012e2620054c7565b1480620013035750600a82600c811115620013015762001301620054c7565b145b156200131e576200131688878762002613565b9050620013ab565b600b82600c811115620013355762001335620054c7565b1480620013565750600c82600c811115620013545762001354620054c7565b145b1562001369576200131688878762002aee565b60405162461bcd60e51b815260206004820152601660248201527526b2b9b9b0b3b2aa3cb8329034b9903ab735b737bbb760511b60448201526064016200075f565b5050505050505050565b6000828152609760205260408120620013cf908362002f64565b9392505050565b60009182526065602090815260408084206001600160a01b0393909316845291905290205460ff1690565b6200141c600080516020620086e883398151915233620013d6565b6200143b5760405162461bcd60e51b81526004016200075f9062005199565b60cd805460ff60a01b19169055565b60006001600160a01b0389163014620014a65760405162461bcd60e51b815260206004820152601d60248201527f5265766572742045524331313535206261746368207472616e7366657200000060448201526064016200075f565b507fbc197c819b3e337a6f9652dd10becd7eef83032af3b9d958d3d42f669414662198975050505050505050565b60ca546001600160a01b0316331480620014f65750620014f6600033620013d6565b6200153c5760405162461bcd60e51b81526020600482015260156024820152742737ba1030baba3437b934bd32b21031b0b63632b960591b60448201526064016200075f565b600082826040516020016200155392919062004e04565b60408051601f198184030181529181528151602092830120600081815260ce9093529120549091506001600160a01b0316620015d25760405162461bcd60e51b815260206004820152601860248201527f546f6b656e204d616e61676572206973206e6f7420736574000000000000000060448201526064016200075f565b600090815260ce6020526040902080546001600160a01b03191690555050565b6200161e7ffda70c2cc66a36c14884ee85424961f51b1d92b4494751699b6d105b3bcbcba833620013d6565b6200166c5760405162461bcd60e51b815260206004820181905260248201527f544f4b454e5f5245474953545241525f524f4c4520697320726571756972656460448201526064016200075f565b60c954604051634ccd5cd560e11b81526001600160a01b039091169063999ab9aa90620016a09087908790600401620050ce565b60206040518083038186803b158015620016b957600080fd5b505afa158015620016ce573d6000803e3d6000fd5b505050506040513d601f19601f82011682018060405250810190620016f4919062004670565b6200173b5760405162461bcd60e51b815260206004820152601660248201527510da185a5b881a5cc81b9bdd0818dbdb9b9958dd195960521b60448201526064016200075f565b6001600160a01b0381163b620017945760405162461bcd60e51b815260206004820152601f60248201527f476976656e2061646472657373206973206e6f74206120636f6e74726163740060448201526064016200075f565b60008484604051602001620017ab92919062004e04565b60408051601f198184030181529181528151602092830120600081815260d184528281206001600160a01b0388811683529452919091205490925016156200182f5760405162461bcd60e51b8152602060048201526016602482015275436f756c64206e6f742072656c696e6b20636c6f6e6560501b60448201526064016200075f565b6001600160a01b038216600090815260d0602052604090205460ff16156200189a5760405162461bcd60e51b815260206004820152601760248201527f436c6f6e652077617320616c726561647920616464656400000000000000000060448201526064016200075f565b600081815260d1602090815260408083206001600160a01b0387811680865291845282852080546001600160a01b031916918816918217905580855260d0909352818420805460ff1916600117905590519192909184917ff86f4b9b158b421a62f31d8b430c86afba56c6bb611fb82bc115dd030903d36a91a45050505050565b60008181526097602052604081206200071f9062002f72565b60ca546001600160a01b031633148062001956575062001956600033620013d6565b6200199c5760405162461bcd60e51b81526020600482015260156024820152742737ba1030baba3437b934bd32b21031b0b63632b960591b60448201526064016200075f565b60008383604051602001620019b392919062004e04565b60408051601f198184030181529181528151602092830120600081815260ce9093529120549091506001600160a01b03161562001a335760405162461bcd60e51b815260206004820152601c60248201527f546f6b656e204d616e6167657220697320616c7265616479207365740000000060448201526064016200075f565b6001600160a01b03821662001a5c5760405162461bcd60e51b81526004016200075f9062005112565b600090815260ce6020526040902080546001600160a01b0319166001600160a01b03929092169190911790555050565b62000d1e828262002f7d565b62001aa5600033620013d6565b62001af35760405162461bcd60e51b815260206004820152601e60248201527f44454641554c545f41444d494e5f524f4c45206973207265717569726564000060448201526064016200075f565b6001600160a01b03811662001b4b5760405162461bcd60e51b815260206004820181905260248201527f4465706f736974426f7820616464726573732068617320746f2062652073657460448201526064016200075f565b60cd54604080516001600160a01b03928316815291831660208301527fc968af77923193016f61d74ba6827296db5e1f37ec4fab3ad1ef20e193395e59910160405180910390a160cd80546001600160a01b0319166001600160a01b0392909216919091179055565b60006001600160a01b038716301462001c105760405162461bcd60e51b815260206004820152601760248201527f5265766572742045524331313535207472616e7366657200000000000000000060448201526064016200075f565b507ff23a6e612e1ff4830e658fe43f4e3cb4a5f8170bd5d9e69fb5d7a7fa9e4fdf979695505050505050565b60cb546040516311be333d60e11b81523360048201526001600160a01b039091169063237c667a90602401600060405180830381600087803b15801562001c8257600080fd5b505af115801562001c97573d6000803e3d6000fd5b5050505062000ae36040518060400160405280600781526020016613585a5b9b995d60ca1b81525060405160200162001cd1919062004e14565b60408051601f19818403018152919052805160209091012060cd546001600160a01b03168533868662001d27565b60006001600160e01b03198216630271189760e51b14806200071f57506200071f8262002fa7565b600086815260d1602090815260408083206001600160a01b0380891685529252822054168062001d58575060019050845b6001600160a01b0381163b62001dac5760405162461bcd60e51b81526020600482015260186024820152772737903a37b5b2b71031b637b7329037b71039b1b430b4b760411b60448201526064016200075f565b60405163e985e9c560e01b81523360048201523060248201526001600160a01b0382169063e985e9c59060440160206040518083038186803b15801562001df257600080fd5b505afa15801562001e07573d6000803e3d6000fd5b505050506040513d601f19601f8201168201806040525081019062001e2d919062004670565b62001e775760405162461bcd60e51b81526020600482015260196024820152782737ba1030b63637bbb2b21022a92198989a9a902a37b5b2b760391b60448201526064016200075f565b600062001e878787878762002fcf565b9050821562001f315762001e9f898333888862003038565b905062001ec3898362001eb28862003100565b62001ebd8862003100565b6200314a565b604051637921219560e11b81526001600160a01b0383169063f242432a9062001ef790339030908a908a9060040162004f6d565b600060405180830381600087803b15801562001f1257600080fd5b505af115801562001f27573d6000803e3d6000fd5b5050505062001f9b565b604051637a94c56560e11b815233600482015260248101869052604481018590526001600160a01b0383169063f5298aca90606401600060405180830381600087803b15801562001f8157600080fd5b505af115801562001f96573d6000803e3d6000fd5b505050505b60c954604051634a24490160e11b81526001600160a01b039091169063944892029062001fd1908c908c908690600401620050a2565b600060405180830381600087803b15801562001fec57600080fd5b505af115801562002001573d6000803e3d6000fd5b50505050505050505050505050565b6000828152606560205260409020600101546200202e813362003256565b62000ae38383620032c5565b6000620013cf836001600160a01b0384166200334f565b6001600160a01b0381163314620020c35760405162461bcd60e51b815260206004820152602f60248201527f416363657373436f6e74726f6c3a2063616e206f6e6c792072656e6f756e636560448201526e103937b632b9903337b91039b2b63360891b60648201526084016200075f565b620020cf8282620033a1565b5050565b6000620013cf836001600160a01b0384166200340b565b600088815260d1602090815260408083206001600160a01b03808b168552925282205416806200211b575060019050865b6001600160a01b0381163b6200216f5760405162461bcd60e51b81526020600482015260186024820152772737903a37b5b2b71031b637b7329037b71039b1b430b4b760411b60448201526064016200075f565b60405163e985e9c560e01b81523360048201523060248201526001600160a01b0382169063e985e9c59060440160206040518083038186803b158015620021b557600080fd5b505afa158015620021ca573d6000803e3d6000fd5b505050506040513d601f19601f82011682018060405250810190620021f0919062004670565b6200223a5760405162461bcd60e51b81526020600482015260196024820152782737ba1030b63637bbb2b21022a92198989a9a902a37b5b2b760391b60448201526064016200075f565b6000620022ad898989898080602002602001604051908101604052809392919081815260200183836020028082843760009201919091525050604080516020808d0282810182019093528c82529093508c92508b9182918501908490808284376000920191909152506200350f92505050565b90508215620023ac57620022c78b83338a8a8a8a6200355e565b90506200233a8b8389898080602002602001604051908101604052809392919081815260200183836020028082843760009201919091525050604080516020808d0282810182019093528c82529093508c92508b9182918501908490808284376000920191909152506200314a92505050565b604051631759616b60e11b81526001600160a01b03831690632eb2c2d6906200237290339030908c908c908c908c9060040162004eab565b600060405180830381600087803b1580156200238d57600080fd5b505af1158015620023a2573d6000803e3d6000fd5b5050505062002417565b604051631ac8311560e21b81526001600160a01b03831690636b20c45490620023e29033908b908b908b908b9060040162004fa5565b600060405180830381600087803b158015620023fd57600080fd5b505af115801562002412573d6000803e3d6000fd5b505050505b60c954604051634a24490160e11b81526001600160a01b03909116906394489202906200244d908e908e908690600401620050a2565b600060405180830381600087803b1580156200246857600080fd5b505af11580156200247d573d6000803e3d6000fd5b505050505050505050505050505050565b600054610100900460ff1680620024a8575060005460ff16155b620024c75760405162461bcd60e51b81526004016200075f90620051da565b600054610100900460ff16158015620024ea576000805461ffff19166101011790555b620024f4620036e0565b620024fe620036e0565b62002508620036e0565b62002512620036e0565b801562002525576000805461ff00191690555b50565b62000cf8828262003750565b60006040518060400160405280600781526020016613585a5b9b995d60ca1b81525060405160200162002568919062004e14565b604051602081830303815290604052805190602001208314620025a857600083815260ce60205260409020546001600160a01b03838116911614620013cf565b5060cd546001600160a01b03908116911614919050565b600080620025d08385018562004694565b9050620025df6020826200548e565b6200260557620025fc620025f684838188620053a0565b620025bf565b9150506200071f565b620025fc83850185620047cc565b600080620026228484620025bf565b9050600080808080600986600c811115620026415762002641620054c7565b1415620026c7576000620026568a8a6200375c565b90508060400151955080602001519450806060015193508060800151925060d160008c81526020019081526020016000206000866001600160a01b03166001600160a01b0316815260200190815260200160002060009054906101000a90046001600160a01b031691505062002885565b6000620026d58a8a62003818565b9050806000015160400151955080600001516020015194508060000151606001519350806000015160800151925060d160008c81526020019081526020016000206000866001600160a01b03166001600160a01b0316815260200190815260200160002060009054906101000a90046001600160a01b0316915060006001600160a01b0316826001600160a01b03161415620028835760cd54600160a01b900460ff16620027c65760405162461bcd60e51b815260206004820152601c60248201527f4175746f6d61746963206465706c6f792069732064697361626c65640000000060448201526064016200075f565b602081015151604051620027da906200401b565b620027e69190620050fd565b604051809103906000f08015801562002803573d6000803e3d6000fd5b5060008c815260d1602090815260408083206001600160a01b038a811680865291845282852080546001600160a01b031916918716918217905580855260d0909352818420805460ff191660011790559051939550909290918e917fae5aabebaedd1b95e68d95d1bc05734a63a8e451f94b37864515b78c532247d99190a45b505b600986600c8111156200289c576200289c620054c7565b148015620028f157506040518060400160405280600781526020016613585a5b9b995d60ca1b815250604051602001620028d7919062004e14565b604051602081830303815290604052805190602001208a14155b801562002913575060008a815260d360205260409020620029139085620038ba565b1562002a02576001600160a01b0384163b620029725760405162461bcd60e51b815260206004820152601a60248201527f496e636f7272656374206d61696e20636861696e20746f6b656e00000000000060448201526064016200075f565b620029948a85620029838662003100565b6200298e8662003100565b620038dd565b604051637921219560e11b81526001600160a01b0385169063f242432a90620029c890309089908890889060040162004f6d565b600060405180830381600087803b158015620029e357600080fd5b505af1158015620029f8573d6000803e3d6000fd5b5050505062002a7c565b60405163731133e960e01b81526001600160a01b0386811660048301526024820185905260448201849052608060648301526000608483015282169063731133e99060a401600060405180830381600087803b15801562002a6257600080fd5b505af115801562002a77573d6000803e3d6000fd5b505050505b806001600160a01b0316846001600160a01b03168b7f2349a6dafaf84dd371a44cd78bd587d9e750c3dfa1137d21f34f00e0d4babcb262002abd8762003100565b62002ac88762003100565b60405162002ad892919062005079565b60405180910390a4509298975050505050505050565b60008062002afd8484620025bf565b905060008060608082600b86600c81111562002b1d5762002b1d620054c7565b141562002ba357600062002b328a8a620039e9565b90508060400151955080602001519450806060015193508060800151925060d160008c81526020019081526020016000206000866001600160a01b03166001600160a01b0316815260200190815260200160002060009054906101000a90046001600160a01b031691505062002d4c565b600062002bb18a8a62003aaa565b9050806000015160400151955080600001516020015194508060000151606001519350806000015160800151925060d160008c81526020019081526020016000206000866001600160a01b03166001600160a01b0316815260200190815260200160002060009054906101000a90046001600160a01b0316915060006001600160a01b0316826001600160a01b0316141562002d4a5760cd54600160a01b900460ff1662002ca25760405162461bcd60e51b815260206004820152601c60248201527f4175746f6d61746963206465706c6f792069732064697361626c65640000000060448201526064016200075f565b60208101515160405162002cb6906200401b565b62002cc29190620050fd565b604051809103906000f08015801562002cdf573d6000803e3d6000fd5b5060008c815260d1602090815260408083206001600160a01b038a81168086529190935281842080546001600160a01b03191693861693841790559051939550909290918e917fae5aabebaedd1b95e68d95d1bc05734a63a8e451f94b37864515b78c532247d99190a45b505b600b86600c81111562002d635762002d63620054c7565b14801562002db857506040518060400160405280600781526020016613585a5b9b995d60ca1b81525060405160200162002d9e919062004e14565b604051602081830303815290604052805190602001208a14155b801562002dda575060008a815260d36020526040902062002dda9085620038ba565b1562002eb5576001600160a01b0384163b62002e395760405162461bcd60e51b815260206004820152601a60248201527f496e636f7272656374206d61696e20636861696e20746f6b656e00000000000060448201526064016200075f565b62002e478a858585620038dd565b604051631759616b60e11b81526001600160a01b03851690632eb2c2d69062002e7b90309089908890889060040162004f0e565b600060405180830381600087803b15801562002e9657600080fd5b505af115801562002eab573d6000803e3d6000fd5b5050505062002f1c565b604051630fbfeffd60e11b81526001600160a01b03821690631f7fdffa9062002ee79088908790879060040162004fed565b600060405180830381600087803b15801562002f0257600080fd5b505af115801562002f17573d6000803e3d6000fd5b505050505b806001600160a01b0316846001600160a01b03168b7f2349a6dafaf84dd371a44cd78bd587d9e750c3dfa1137d21f34f00e0d4babcb2868660405162002ad892919062005079565b6000620013cf838362003b51565b60006200071f825490565b60008281526065602052604090206001015462002f9b813362003256565b62000ae38383620033a1565b60006001600160e01b03198216635a05180f60e01b14806200071f57506200071f8262003b7e565b6040805160c081018252600960a0820190815281526001600160a01b038087166020808401919091529086168284015260608083018690526080830185905292516200301e91839101620052be565b604051602081830303815290604052915050949350505050565b600085815260d36020526040812060609190620030569087620038ba565b9050806200308b576200306a878762003bb5565b62003083868686866200307d8b62003cce565b62003d6f565b91506200309c565b620030998686868662002fcf565b91505b856001600160a01b0316877f601046fc8dbb772c2b88d30850532ffec5253f2e73c855af1c5f318a7a4562b0620030d38762003100565b620030de8762003100565b604051620030ee92919062005079565b60405180910390a35095945050505050565b604080516001808252818301909252606091602080830190803683370190505090508181600081518110620031395762003139620054f3565b602002602001018181525050919050565b80518251146200319d5760405162461bcd60e51b815260206004820152601a60248201527f496e636f7272656374206c656e677468206f662061727261797300000000000060448201526064016200075f565b60005b8251811015620011ec57818181518110620031bf57620031bf620054f3565b602002602001015160d260008781526020019081526020016000206000866001600160a01b03166001600160a01b031681526020019081526020016000206000858481518110620032145762003214620054f3565b6020026020010151815260200190815260200160002060008282546200323b9190620053cc565b909155508190506200324d8162005470565b915050620031a0565b620032628282620013d6565b620020cf576200327d816001600160a01b0316601462003df6565b6200328a83602062003df6565b6040516020016200329d92919062004e32565b60408051601f198184030181529082905262461bcd60e51b82526200075f91600401620050fd565b620032d18282620013d6565b620020cf5760008281526065602090815260408083206001600160a01b03851684529091529020805460ff191660011790556200330b3390565b6001600160a01b0316816001600160a01b0316837f2f8788117e7eff1d82e926ec794901d17c78024a50270940304540a733656f0d60405160405180910390a45050565b600081815260018301602052604081205462003398575081546001818101845560008481526020808220909301849055845484825282860190935260409020919091556200071f565b5060006200071f565b620033ad8282620013d6565b15620020cf5760008281526065602090815260408083206001600160a01b0385168085529252808320805460ff1916905551339285917ff6391f5c32d9c69d2a47ea670b442974b53935d1edc7fd64eb21e047a839171b9190a45050565b60008181526001830160205260408120548015620035045760006200343260018362005409565b8554909150600090620034489060019062005409565b9050818114620034b45760008660000182815481106200346c576200346c620054f3565b9060005260206000200154905080876000018481548110620034925762003492620054f3565b6000918252602080832090910192909255918252600188019052604090208390555b8554869080620034c857620034c8620054dd565b6001900381819060005260206000200160009055905585600101600086815260200190815260200160002060009055600193505050506200071f565b60009150506200071f565b6040805160c081018252600b60a0820190815281526001600160a01b038087166020808401919091529086168284015260608083018690526080830185905292516200301e91839101620052a9565b600087815260d360205260408120606091906200357c9089620038ba565b905080620036165762003590898962003bb5565b6200360e888888888080602002602001604051908101604052809392919081815260200183836020028082843760009201919091525050604080516020808c0282810182019093528b82529093508b92508a9182918501908490808284376000920191909152506200360892508f915062003cce9050565b62003faf565b91506200368a565b62003687888888888080602002602001604051908101604052809392919081815260200183836020028082843760009201919091525050604080516020808c0282810182019093528b82529093508b92508a9182918501908490808284376000920191909152506200350f92505050565b91505b876001600160a01b0316897f601046fc8dbb772c2b88d30850532ffec5253f2e73c855af1c5f318a7a4562b088888888604051620036cc949392919062005043565b60405180910390a350979650505050505050565b600054610100900460ff1680620036fa575060005460ff16155b620037195760405162461bcd60e51b81526004016200075f90620051da565b600054610100900460ff1615801562002512576000805461ffff1916610101179055801562002525576000805461ff001916905550565b620020cf8282620032c5565b6040805160c081018252600060a0820181815282526020820181905291810182905260608101829052608081019190915260096200379b8484620025bf565b600c811115620037af57620037af620054c7565b146200380a5760405162461bcd60e51b8152602060048201526024808201527f4d6573736167652074797065206973206e6f742045524331313535207472616e60448201526339b332b960e11b60648201526084016200075f565b620013cf8284018462004c6e565b6200382262004029565b600a620038308484620025bf565b600c811115620038445762003844620054c7565b14620038ac5760405162461bcd60e51b815260206004820152603060248201527f4d6573736167652074797065206973206e6f742045524331313535416e64546f60448201526f35b2b724b73337903a3930b739b332b960811b60648201526084016200075f565b620013cf8284018462004b28565b6001600160a01b03811660009081526001830160205260408120541515620013cf565b8051825114620039305760405162461bcd60e51b815260206004820152601a60248201527f496e636f7272656374206c656e677468206f662061727261797300000000000060448201526064016200075f565b60005b8251811015620011ec57818181518110620039525762003952620054f3565b602002602001015160d260008781526020019081526020016000206000866001600160a01b03166001600160a01b031681526020019081526020016000206000858481518110620039a757620039a7620054f3565b602002602001015181526020019081526020016000206000828254620039ce919062005409565b90915550819050620039e08162005470565b91505062003933565b6040805160c081018252600060a082018181528252602082018190529181019190915260608082018190526080820152600b62003a278484620025bf565b600c81111562003a3b5762003a3b620054c7565b1462003a9c5760405162461bcd60e51b815260206004820152602960248201527f4d6573736167652074797065206973206e6f7420455243313135354261746368604482015268103a3930b739b332b960b91b60648201526084016200075f565b620013cf8284018462004c2e565b62003ab462004082565b600c62003ac28484620025bf565b600c81111562003ad65762003ad6620054c7565b1462003b435760405162461bcd60e51b815260206004820152603560248201527f4d6573736167652074797065206973206e6f742045524331313535426174636860448201527420b7322a37b5b2b724b73337903a3930b739b332b960591b60648201526084016200075f565b620013cf8284018462004bb0565b600082600001828154811062003b6b5762003b6b620054f3565b9060005260206000200154905092915050565b60006001600160e01b03198216637965db0b60e01b14806200071f57506301ffc9a760e01b6001600160e01b03198316146200071f565b6001600160a01b0381163b62003c0e5760405162461bcd60e51b815260206004820152601f60248201527f476976656e2061646472657373206973206e6f74206120636f6e74726163740060448201526064016200075f565b600082815260d36020526040902062003c289082620038ba565b1562003c775760405162461bcd60e51b815260206004820152601f60248201527f4552433131353520546f6b656e2077617320616c72656164792061646465640060448201526064016200075f565b600082815260d36020526040902062003c9190826200203a565b506040516000906001600160a01b0383169084907ff86f4b9b158b421a62f31d8b430c86afba56c6bb611fb82bc115dd030903d36a908490a45050565b6040805160208101909152606081526040805160208101918290526303a24d0760e21b90915260006024820152806001600160a01b038416630e89341c6044830160006040518083038186803b15801562003d2857600080fd5b505afa15801562003d3d573d6000803e3d6000fd5b505050506040513d6000823e601f3d908101601f1916820160405262003d67919081019062004a14565b905292915050565b604080516101008101825260609160009190819081018060e0830180600a81525081526020018a6001600160a01b03168152602001896001600160a01b031681526020018881526020018781525081526020018481525090508060405160200162003ddb919062005228565b60405160208183030381529060405291505095945050505050565b6060600062003e07836002620053e7565b62003e14906002620053cc565b6001600160401b0381111562003e2e5762003e2e62005509565b6040519080825280601f01601f19166020018201604052801562003e59576020820181803683370190505b509050600360fc1b8160008151811062003e775762003e77620054f3565b60200101906001600160f81b031916908160001a905350600f60fb1b8160018151811062003ea95762003ea9620054f3565b60200101906001600160f81b031916908160001a905350600062003ecf846002620053e7565b62003edc906001620053cc565b90505b600181111562003f5e576f181899199a1a9b1b9c1cb0b131b232b360811b85600f166010811062003f145762003f14620054f3565b1a60f81b82828151811062003f2d5762003f2d620054f3565b60200101906001600160f81b031916908160001a90535060049490941c9362003f568162005456565b905062003edf565b508315620013cf5760405162461bcd60e51b815260206004820181905260248201527f537472696e67733a20686578206c656e67746820696e73756666696369656e7460448201526064016200075f565b604080516101008101825260609160009190819081018060e0830180600c81525081526020018a6001600160a01b03168152602001896001600160a01b031681526020018881526020018781525081526020018481525090508060405160200162003ddb919062005264565b6131b2806200553683390190565b6040805161010081018252600060e08201818152928201928352606082018190526080820181905260a0820181905260c08201529081905b81526020016200407d6040518060200160405280606081525090565b905290565b6040805161010081018252600060e082018181529282019283526060808301829052608083019190915260a0820181905260c082015290819062004061565b60008083601f840112620040d457600080fd5b5081356001600160401b03811115620040ec57600080fd5b6020830191508360208260051b85010111156200410857600080fd5b9250929050565b600082601f8301126200412157600080fd5b813560206001600160401b038211156200413f576200413f62005509565b8160051b6200415082820162005343565b8381528281019086840183880185018910156200416c57600080fd5b600093505b858410156200419157803583526001939093019291840191840162004171565b50979650505050505050565b60008083601f840112620041b057600080fd5b5081356001600160401b03811115620041c857600080fd5b6020830191508360208285010111156200410857600080fd5b8035600d8110620041f157600080fd5b919050565b600082601f8301126200420857600080fd5b81356200421f620042198262005376565b62005343565b8181528460208386010111156200423557600080fd5b816020850160208301376000918101602001919091529392505050565b6000602082840312156200426557600080fd5b6200426f620052ce565b90506200427c82620041e1565b815292915050565b6000602082840312156200429757600080fd5b620042a1620052ce565b905081356001600160401b03811115620042ba57600080fd5b620042c884828501620041f6565b82525092915050565b600060a08284031215620042e457600080fd5b620042ee620052f9565b9050620042fc838362004252565b815260208201356200430e816200551f565b6020820152604082013562004323816200551f565b604082015260608201356001600160401b03808211156200434357600080fd5b62004351858386016200410f565b606084015260808401359150808211156200436b57600080fd5b506200437a848285016200410f565b60808301525092915050565b600060a082840312156200439957600080fd5b620043a3620052f9565b9050620043b1838362004252565b81526020820135620043c3816200551f565b60208201526040820135620043d8816200551f565b80604083015250606082013560608201526080820135608082015292915050565b6000602082840312156200440c57600080fd5b8135620013cf816200551f565b60008060008060008060008060a0898b0312156200443657600080fd5b883562004443816200551f565b9750602089013562004455816200551f565b965060408901356001600160401b03808211156200447257600080fd5b620044808c838d01620040c1565b909850965060608b01359150808211156200449a57600080fd5b620044a88c838d01620040c1565b909650945060808b0135915080821115620044c257600080fd5b50620044d18b828c016200419d565b999c989b5096995094979396929594505050565b60008060008060008060a08789031215620044ff57600080fd5b86356200450c816200551f565b955060208701356200451e816200551f565b9450604087013593506060870135925060808701356001600160401b038111156200454857600080fd5b6200455689828a016200419d565b979a9699509497509295939492505050565b6000806000806000606086880312156200458157600080fd5b85356200458e816200551f565b945060208601356001600160401b0380821115620045ab57600080fd5b620045b989838a01620040c1565b90965094506040880135915080821115620045d357600080fd5b50620045e288828901620040c1565b969995985093965092949392505050565b6000806000606084860312156200460957600080fd5b833562004616816200551f565b95602085013595506040909401359392505050565b600080602083850312156200463f57600080fd5b82356001600160401b038111156200465657600080fd5b6200466485828601620040c1565b90969095509350505050565b6000602082840312156200468357600080fd5b81518015158114620013cf57600080fd5b600060208284031215620046a757600080fd5b5035919050565b60008060408385031215620046c257600080fd5b823591506020830135620046d6816200551f565b809150509250929050565b60008060008060608587031215620046f857600080fd5b8435935060208501356200470c816200551f565b925060408501356001600160401b038111156200472857600080fd5b62004736878288016200419d565b95989497509550505050565b6000806000606084860312156200475857600080fd5b8335925060208401356200476c816200551f565b929592945050506040919091013590565b600080604083850312156200479157600080fd5b50508035926020909101359150565b600060208284031215620047b357600080fd5b81356001600160e01b031981168114620013cf57600080fd5b600060208284031215620047df57600080fd5b620013cf82620041e1565b60008060208385031215620047fe57600080fd5b82356001600160401b038111156200481557600080fd5b62004664858286016200419d565b6000806000604084860312156200483957600080fd5b83356001600160401b038111156200485057600080fd5b6200485e868287016200419d565b909450925050602084013562004874816200551f565b809150509250925092565b600080600080606085870312156200489657600080fd5b84356001600160401b03811115620048ad57600080fd5b620048bb878288016200419d565b9095509350506020850135620048d1816200551f565b91506040850135620048e3816200551f565b939692955090935050565b60008060008060008060006080888a0312156200490a57600080fd5b87356001600160401b03808211156200492257600080fd5b620049308b838c016200419d565b909950975060208a0135915062004947826200551f565b909550604089013590808211156200495e57600080fd5b6200496c8b838c01620040c1565b909650945060608a01359150808211156200498657600080fd5b50620049958a828b01620040c1565b989b979a50959850939692959293505050565b600080600080600060808688031215620049c157600080fd5b85356001600160401b03811115620049d857600080fd5b620049e6888289016200419d565b9096509450506020860135620049fc816200551f565b94979396509394604081013594506060013592915050565b60006020828403121562004a2757600080fd5b81516001600160401b0381111562004a3e57600080fd5b8201601f8101841362004a5057600080fd5b805162004a61620042198262005376565b81815285602083850101111562004a7757600080fd5b62004a8a82602083016020860162005423565b95945050505050565b600080600080600060a0868803121562004aac57600080fd5b85356001600160401b0381111562004ac357600080fd5b62004ad188828901620041f6565b955050602086013562004ae4816200551f565b9350604086013562004af6816200551f565b9250606086013562004b08816200551f565b9150608086013562004b1a816200551f565b809150509295509295909350565b60006020828403121562004b3b57600080fd5b81356001600160401b038082111562004b5357600080fd5b9083019060c0828603121562004b6857600080fd5b62004b726200531e565b62004b7e868462004386565b815260a08301358281111562004b9357600080fd5b62004ba18782860162004284565b60208301525095945050505050565b60006020828403121562004bc357600080fd5b81356001600160401b038082111562004bdb57600080fd5b908301906040828603121562004bf057600080fd5b62004bfa6200531e565b82358281111562004c0a57600080fd5b62004c1887828601620042d1565b82525060208301358281111562004b9357600080fd5b60006020828403121562004c4157600080fd5b81356001600160401b0381111562004c5857600080fd5b62004c6684828501620042d1565b949350505050565b600060a0828403121562004c8157600080fd5b620013cf838362004386565b81835260006001600160fb1b0383111562004ca757600080fd5b8260051b8083602087013760009401602001938452509192915050565b600081518084526020808501945080840160005b8381101562004cf65781518752958201959082019060010162004cd8565b509495945050505050565b6000815180845262004d1b81602086016020860162005423565b601f01601f19169290920160200192915050565b8051600d811062004d5057634e487b7160e01b600052602160045260246000fd5b90915250565b62004d6382825162004d2f565b6000602082015160018060a01b0380821660208601528060408501511660408601525050606082015160a0606085015262004da260a085018262004cc4565b90506080830151848203608086015262004a8a828262004cc4565b62004dca82825162004d2f565b6020818101516001600160a01b03908116918401919091526040808301519091169083015260608082015190830152608090810151910152565b8183823760009101908152919050565b6000825162004e2881846020870162005423565b9190910192915050565b7f416363657373436f6e74726f6c3a206163636f756e742000000000000000000081526000835162004e6c81601785016020880162005423565b7001034b99036b4b9b9b4b733903937b6329607d1b601791840191820152835162004e9f81602884016020880162005423565b01602801949350505050565b6001600160a01b0387811682528616602082015260a06040820181905260009062004eda908301868862004c8d565b828103606084015262004eef81858762004c8d565b8381036080909401939093525050600081526020019695505050505050565b6001600160a01b0385811682528416602082015260a06040820181905260009062004f3c9083018562004cc4565b828103606084015262004f50818562004cc4565b838103608090940193909352505060008152602001949350505050565b6001600160a01b0394851681529290931660208301526040820152606081019190915260a06080820181905260009082015260c00190565b6001600160a01b038616815260606020820181905260009062004fcc908301868862004c8d565b828103604084015262004fe181858762004c8d565b98975050505050505050565b6001600160a01b0384168152608060208201819052600090620050139083018562004cc4565b828103604084015262005027818562004cc4565b8381036060909401939093525050600081526020019392505050565b6040815260006200505960408301868862004c8d565b82810360208401526200506e81858762004c8d565b979650505050505050565b6040815260006200508e604083018562004cc4565b828103602084015262004a8a818562004cc4565b8381526001600160a01b038316602082015260606040820181905260009062004a8a9083018462004d01565b60208152816020820152818360408301376000818301604090810191909152601f909201601f19160101919050565b602081526000620013cf602083018462004d01565b6020808252601f908201527f496e636f727265637420546f6b656e204d616e61676572206164647265737300604082015260600190565b60208082526030908201527f546869732066756e6374696f6e206973206e6f7420666f72207472616e73666560408201526f1c9c9a5b99c81d1bc813585a5b9b995d60821b606082015260800190565b60208082526021908201527f4155544f4d415449435f4445504c4f595f524f4c4520697320726571756972656040820152601960fa1b606082015260800190565b6020808252602e908201527f496e697469616c697a61626c653a20636f6e747261637420697320616c72656160408201526d191e481a5b9a5d1a585b1a5e995960921b606082015260800190565b602081526200523c60208201835162004dbd565b6000602083015160c08084015280519050602060e084015262004c6661010084018262004d01565b60208152600082516040602084015262005282606084018262004d56565b602085810151858303601f190160408701525181835291925062004a8a9083018262004d01565b602081526000620013cf602083018462004d56565b60a081016200071f828462004dbd565b604051602081016001600160401b0381118282101715620052f357620052f362005509565b60405290565b60405160a081016001600160401b0381118282101715620052f357620052f362005509565b604080519081016001600160401b0381118282101715620052f357620052f362005509565b604051601f8201601f191681016001600160401b03811182821017156200536e576200536e62005509565b604052919050565b60006001600160401b0382111562005392576200539262005509565b50601f01601f191660200190565b60008085851115620053b157600080fd5b83861115620053bf57600080fd5b5050820193919092039150565b60008219821115620053e257620053e2620054b1565b500190565b6000816000190483118215151615620054045762005404620054b1565b500290565b6000828210156200541e576200541e620054b1565b500390565b60005b838110156200544057818101518382015260200162005426565b8381111562005450576000848401525b50505050565b600081620054685762005468620054b1565b506000190190565b6000600019821415620054875762005487620054b1565b5060010190565b600082620054ac57634e487b7160e01b600052601260045260246000fd5b500690565b634e487b7160e01b600052601160045260246000fd5b634e487b7160e01b600052602160045260246000fd5b634e487b7160e01b600052603160045260246000fd5b634e487b7160e01b600052603260045260246000fd5b634e487b7160e01b600052604160045260246000fd5b6001600160a01b03811681146200252557600080fdfe60806040523480156200001157600080fd5b50604051620031b2380380620031b2833981016040819052620000349162000736565b600054610100900460ff16806200004e575060005460ff16155b620000a65760405162461bcd60e51b815260206004820152602e60248201526000805160206200317283398151915260448201526d191e481a5b9a5d1a585b1a5e995960921b60648201526084015b60405180910390fd5b600054610100900460ff16158015620000c9576000805461ffff19166101011790555b620000de6200015a60201b620009b11760201c565b620000f4826200022960201b62000a3d1760201c565b62000109620002f060201b62000ac31760201c565b6200012460008051602062003192833981519152806200038a565b6200013f6000805160206200319283398151915233620003d5565b801562000152576000805461ff00191690555b505062000865565b600054610100900460ff168062000174575060005460ff16155b620001c85760405162461bcd60e51b815260206004820152602e60248201526000805160206200317283398151915260448201526d191e481a5b9a5d1a585b1a5e995960921b60648201526084016200009d565b600054610100900460ff16158015620001eb576000805461ffff19166101011790555b620001f562000418565b620001ff62000418565b6200020962000418565b6200021362000418565b801562000226576000805461ff00191690555b50565b600054610100900460ff168062000243575060005460ff16155b620002975760405162461bcd60e51b815260206004820152602e60248201526000805160206200317283398151915260448201526d191e481a5b9a5d1a585b1a5e995960921b60648201526084016200009d565b600054610100900460ff16158015620002ba576000805461ffff19166101011790555b620002c462000418565b620002ce62000418565b620002d982620004bd565b8015620002ec576000805461ff00191690555b5050565b600054610100900460ff16806200030a575060005460ff16155b6200035e5760405162461bcd60e51b815260206004820152602e60248201526000805160206200317283398151915260448201526d191e481a5b9a5d1a585b1a5e995960921b60648201526084016200009d565b600054610100900460ff16158015620001f5576000805461ffff1916610101179055620001ff62000418565b600082815260656020526040808220600101805490849055905190918391839186917fbd79b86ffe0ab8e8776151514217cd7cacd52c909f66475c3af44e129f0b00ff9190a4505050565b620003ec82826200055960201b62000b211760201c565b60008281526097602090815260409091206200041391839062000b2b62000565821b17901c565b505050565b600054610100900460ff168062000432575060005460ff16155b620004865760405162461bcd60e51b815260206004820152602e60248201526000805160206200317283398151915260448201526d191e481a5b9a5d1a585b1a5e995960921b60648201526084016200009d565b600054610100900460ff1615801562000213576000805461ffff1916610101179055801562000226576000805461ff001916905550565b600054610100900460ff1680620004d7575060005460ff16155b6200052b5760405162461bcd60e51b815260206004820152602e60248201526000805160206200317283398151915260448201526d191e481a5b9a5d1a585b1a5e995960921b60648201526084016200009d565b600054610100900460ff161580156200054e576000805461ffff19166101011790555b620002d98262000585565b620002ec82826200059a565b60006200057c836001600160a01b0384166200063e565b90505b92915050565b8051620002ec9060cb90602084019062000690565b60008281526065602090815260408083206001600160a01b038516845290915290205460ff16620002ec5760008281526065602090815260408083206001600160a01b03851684529091529020805460ff19166001179055620005fa3390565b6001600160a01b0316816001600160a01b0316837f2f8788117e7eff1d82e926ec794901d17c78024a50270940304540a733656f0d60405160405180910390a45050565b600081815260018301602052604081205462000687575081546001818101845560008481526020808220909301849055845484825282860190935260409020919091556200057f565b5060006200057f565b8280546200069e9062000812565b90600052602060002090601f016020900481019282620006c257600085556200070d565b82601f10620006dd57805160ff19168380011785556200070d565b828001600101855582156200070d579182015b828111156200070d578251825591602001919060010190620006f0565b506200071b9291506200071f565b5090565b5b808211156200071b576000815560010162000720565b600060208083850312156200074a57600080fd5b82516001600160401b03808211156200076257600080fd5b818501915085601f8301126200077757600080fd5b8151818111156200078c576200078c6200084f565b604051601f8201601f19908116603f01168101908382118183101715620007b757620007b76200084f565b816040528281528886848701011115620007d057600080fd5b600093505b82841015620007f45784840186015181850187015292850192620007d5565b82841115620008065760008684830101525b98975050505050505050565b600181811c908216806200082757607f821691505b602082108114156200084957634e487b7160e01b600052602260045260246000fd5b50919050565b634e487b7160e01b600052604160045260246000fd5b6128fd80620008756000396000f3fe608060405234801561001057600080fd5b50600436106101365760003560e01c8063731133e9116100b8578063ca15c8731161007c578063ca15c873146102b4578063d5391393146102c7578063d547741f146102ee578063e985e9c514610301578063f242432a1461033d578063f5298aca1461035057600080fd5b8063731133e9146102485780639010d07c1461025b57806391d1485414610286578063a217fddf14610299578063a22cb465146102a157600080fd5b80632eb2c2d6116100ff5780632eb2c2d6146101dc5780632f2ff15d146101ef57806336568abe146102025780634e1273f4146102155780636b20c4541461023557600080fd5b8062fdd58e1461013b57806301ffc9a7146101615780630e89341c146101845780631f7fdffa146101a4578063248a9ca3146101b9575b600080fd5b61014e61014936600461200f565b610363565b6040519081526020015b60405180910390f35b61017461016f3660046121f0565b6103ff565b6040519015158152602001610158565b610197610192366004612192565b61040a565b60405161015891906123ea565b6101b76101b2366004611f3a565b61049e565b005b61014e6101c7366004612192565b60009081526065602052604090206001015490565b6101b76101ea366004611db7565b61051f565b6101b76101fd3660046121ab565b6105b6565b6101b76102103660046121ab565b6105dd565b6102286102233660046120c1565b6105ff565b60405161015891906123a9565b6101b7610243366004611ec6565b610729565b6101b761025636600461206c565b61076c565b61026e6102693660046121ce565b6107e7565b6040516001600160a01b039091168152602001610158565b6101746102943660046121ab565b610806565b61014e600081565b6101b76102af366004611fd3565b610831565b61014e6102c2366004612192565b610908565b61014e7f9f2df0fed2c77648de5860a4cc508cd0818c85b8b8a1ab4ceeef8d981c8956a681565b6101b76102fc3660046121ab565b61091f565b61017461030f366004611d84565b6001600160a01b03918216600090815260ca6020908152604080832093909416825291909152205460ff1690565b6101b761034b366004611e61565b610929565b6101b761035e366004612039565b61096e565b60006001600160a01b0383166103d45760405162461bcd60e51b815260206004820152602b60248201527f455243313135353a2062616c616e636520717565727920666f7220746865207a60448201526a65726f206164647265737360a81b60648201526084015b60405180910390fd5b50600081815260c9602090815260408083206001600160a01b03861684529091529020545b92915050565b60006103f982610b40565b606060cb805461041990612730565b80601f016020809104026020016040519081016040528092919081815260200182805461044590612730565b80156104925780601f1061046757610100808354040283529160200191610492565b820191906000526020600020905b81548152906001019060200180831161047557829003601f168201915b50505050509050919050565b6104c87f9f2df0fed2c77648de5860a4cc508cd0818c85b8b8a1ab4ceeef8d981c8956a633610806565b61050d5760405162461bcd60e51b815260206004820152601660248201527529b2b73232b91034b9903737ba10309026b4b73a32b960511b60448201526064016103cb565b61051984848484610b80565b50505050565b6001600160a01b03851633148061053b575061053b853361030f565b6105a25760405162461bcd60e51b815260206004820152603260248201527f455243313135353a207472616e736665722063616c6c6572206973206e6f74206044820152711bdddb995c881b9bdc88185c1c1c9bdd995960721b60648201526084016103cb565b6105af8585858585610ccc565b5050505050565b6105c08282610e6b565b60008281526097602052604090206105d89082610b2b565b505050565b6105e78282610e91565b60008281526097602052604090206105d89082610f0b565b606081518351146106645760405162461bcd60e51b815260206004820152602960248201527f455243313135353a206163636f756e747320616e6420696473206c656e677468604482015268040dad2e6dac2e8c6d60bb1b60648201526084016103cb565b6000835167ffffffffffffffff811115610680576106806127f5565b6040519080825280602002602001820160405280156106a9578160200160208202803683370190505b50905060005b8451811015610721576106f48582815181106106cd576106cd6127df565b60200260200101518583815181106106e7576106e76127df565b6020026020010151610363565b828281518110610706576107066127df565b602090810291909101015261071a81612798565b90506106af565b509392505050565b6001600160a01b0383163314806107455750610745833361030f565b6107615760405162461bcd60e51b81526004016103cb90612489565b6105d8838383610f20565b6107967f9f2df0fed2c77648de5860a4cc508cd0818c85b8b8a1ab4ceeef8d981c8956a633610806565b6107db5760405162461bcd60e51b815260206004820152601660248201527529b2b73232b91034b9903737ba10309026b4b73a32b960511b60448201526064016103cb565b6105198484848461109f565b60008281526097602052604081206107ff9083611171565b9392505050565b60009182526065602090815260408084206001600160a01b0393909316845291905290205460ff1690565b336001600160a01b038316141561089c5760405162461bcd60e51b815260206004820152602960248201527f455243313135353a2073657474696e6720617070726f76616c20737461747573604482015268103337b91039b2b63360b91b60648201526084016103cb565b33600081815260ca602090815260408083206001600160a01b03871680855290835292819020805460ff191686151590811790915590519081529192917f17307eab39ab6107e8899845ad3d59bd9653f200f220920489ca2b5937696c31910160405180910390a35050565b60008181526097602052604081206103f99061117d565b6105e78282611187565b6001600160a01b0385163314806109455750610945853361030f565b6109615760405162461bcd60e51b81526004016103cb90612489565b6105af85858585856111ad565b6001600160a01b03831633148061098a575061098a833361030f565b6109a65760405162461bcd60e51b81526004016103cb90612489565b6105d88383836112ce565b600054610100900460ff16806109ca575060005460ff16155b6109e65760405162461bcd60e51b81526004016103cb90612517565b600054610100900460ff16158015610a08576000805461ffff19166101011790555b610a106113d4565b610a186113d4565b610a206113d4565b610a286113d4565b8015610a3a576000805461ff00191690555b50565b600054610100900460ff1680610a56575060005460ff16155b610a725760405162461bcd60e51b81526004016103cb90612517565b600054610100900460ff16158015610a94576000805461ffff19166101011790555b610a9c6113d4565b610aa46113d4565b610aad8261143e565b8015610abf576000805461ff00191690555b5050565b600054610100900460ff1680610adc575060005460ff16155b610af85760405162461bcd60e51b81526004016103cb90612517565b600054610100900460ff16158015610a10576000805461ffff1916610101179055610a186113d4565b610abf828261149e565b60006107ff836001600160a01b038416611524565b60006001600160e01b03198216636cdb3d1360e11b1480610b7157506001600160e01b031982166303a24d0760e21b145b806103f957506103f982611573565b6001600160a01b038416610ba65760405162461bcd60e51b81526004016103cb9061263a565b8151835114610bc75760405162461bcd60e51b81526004016103cb906125f2565b3360005b8451811015610c6457838181518110610be657610be66127df565b602002602001015160c96000878481518110610c0457610c046127df565b602002602001015181526020019081526020016000206000886001600160a01b03166001600160a01b031681526020019081526020016000206000828254610c4c919061269f565b90915550819050610c5c81612798565b915050610bcb565b50846001600160a01b031660006001600160a01b0316826001600160a01b03167f4a39dc06d4c0dbc64b70af90fd698a233a518aa5d07e595d983b8c0526c8f7fb8787604051610cb59291906123bc565b60405180910390a46105af81600087878787611598565b8151835114610ced5760405162461bcd60e51b81526004016103cb906125f2565b6001600160a01b038416610d135760405162461bcd60e51b81526004016103cb906124d2565b3360005b8451811015610dfd576000858281518110610d3457610d346127df565b602002602001015190506000858381518110610d5257610d526127df565b602090810291909101810151600084815260c9835260408082206001600160a01b038e168352909352919091205490915081811015610da35760405162461bcd60e51b81526004016103cb906125a8565b600083815260c9602090815260408083206001600160a01b038e8116855292528083208585039055908b16825281208054849290610de290849061269f565b9250508190555050505080610df690612798565b9050610d17565b50846001600160a01b0316866001600160a01b0316826001600160a01b03167f4a39dc06d4c0dbc64b70af90fd698a233a518aa5d07e595d983b8c0526c8f7fb8787604051610e4d9291906123bc565b60405180910390a4610e63818787878787611598565b505050505050565b600082815260656020526040902060010154610e878133611703565b6105d8838361149e565b6001600160a01b0381163314610f015760405162461bcd60e51b815260206004820152602f60248201527f416363657373436f6e74726f6c3a2063616e206f6e6c792072656e6f756e636560448201526e103937b632b9903337b91039b2b63360891b60648201526084016103cb565b610abf8282611767565b60006107ff836001600160a01b0384166117ce565b6001600160a01b038316610f465760405162461bcd60e51b81526004016103cb90612565565b8051825114610f675760405162461bcd60e51b81526004016103cb906125f2565b604080516020810190915260009081905233905b8351811015611040576000848281518110610f9857610f986127df565b602002602001015190506000848381518110610fb657610fb66127df565b602090810291909101810151600084815260c9835260408082206001600160a01b038c1683529093529190912054909150818110156110075760405162461bcd60e51b81526004016103cb90612445565b600092835260c9602090815260408085206001600160a01b038b168652909152909220910390558061103881612798565b915050610f7b565b5060006001600160a01b0316846001600160a01b0316826001600160a01b03167f4a39dc06d4c0dbc64b70af90fd698a233a518aa5d07e595d983b8c0526c8f7fb86866040516110919291906123bc565b60405180910390a450505050565b6001600160a01b0384166110c55760405162461bcd60e51b81526004016103cb9061263a565b336110df816000876110d6886118c1565b6105af886118c1565b600084815260c9602090815260408083206001600160a01b03891684529091528120805485929061111190849061269f565b909155505060408051858152602081018590526001600160a01b0380881692600092918516917fc3d58168c5ae7397731d063d5bbf3d657854427343f4c083240f7aacaa2d0f62910160405180910390a46105af8160008787878761190c565b60006107ff83836119d6565b60006103f9825490565b6000828152606560205260409020600101546111a38133611703565b6105d88383611767565b6001600160a01b0384166111d35760405162461bcd60e51b81526004016103cb906124d2565b336111e38187876110d6886118c1565b600084815260c9602090815260408083206001600160a01b038a168452909152902054838110156112265760405162461bcd60e51b81526004016103cb906125a8565b600085815260c9602090815260408083206001600160a01b038b811685529252808320878503905590881682528120805486929061126590849061269f565b909155505060408051868152602081018690526001600160a01b03808916928a821692918616917fc3d58168c5ae7397731d063d5bbf3d657854427343f4c083240f7aacaa2d0f62910160405180910390a46112c582888888888861190c565b50505050505050565b6001600160a01b0383166112f45760405162461bcd60e51b81526004016103cb90612565565b3361132481856000611305876118c1565b61130e876118c1565b5050604080516020810190915260009052505050565b600083815260c9602090815260408083206001600160a01b0388168452909152902054828110156113675760405162461bcd60e51b81526004016103cb90612445565b600084815260c9602090815260408083206001600160a01b03898116808652918452828520888703905582518981529384018890529092908616917fc3d58168c5ae7397731d063d5bbf3d657854427343f4c083240f7aacaa2d0f62910160405180910390a45050505050565b600054610100900460ff16806113ed575060005460ff16155b6114095760405162461bcd60e51b81526004016103cb90612517565b600054610100900460ff16158015610a28576000805461ffff19166101011790558015610a3a576000805461ff001916905550565b600054610100900460ff1680611457575060005460ff16155b6114735760405162461bcd60e51b81526004016103cb90612517565b600054610100900460ff16158015611495576000805461ffff19166101011790555b610aad82611a00565b6114a88282610806565b610abf5760008281526065602090815260408083206001600160a01b03851684529091529020805460ff191660011790556114e03390565b6001600160a01b0316816001600160a01b0316837f2f8788117e7eff1d82e926ec794901d17c78024a50270940304540a733656f0d60405160405180910390a45050565b600081815260018301602052604081205461156b575081546001818101845560008481526020808220909301849055845484825282860190935260409020919091556103f9565b5060006103f9565b60006001600160e01b03198216635a05180f60e01b14806103f957506103f982611a13565b6001600160a01b0384163b15610e635760405163bc197c8160e01b81526001600160a01b0385169063bc197c81906115dc9089908990889088908890600401612306565b602060405180830381600087803b1580156115f657600080fd5b505af1925050508015611626575060408051601f3d908101601f191682019092526116239181019061220d565b60015b6116d35761163261280b565b806308c379a0141561166c5750611647612827565b80611652575061166e565b8060405162461bcd60e51b81526004016103cb91906123ea565b505b60405162461bcd60e51b815260206004820152603460248201527f455243313135353a207472616e7366657220746f206e6f6e20455243313135356044820152732932b1b2b4bb32b91034b6b83632b6b2b73a32b960611b60648201526084016103cb565b6001600160e01b0319811663bc197c8160e01b146112c55760405162461bcd60e51b81526004016103cb906123fd565b61170d8282610806565b610abf57611725816001600160a01b03166014611a48565b611730836020611a48565b604051602001611741929190612291565b60408051601f198184030181529082905262461bcd60e51b82526103cb916004016123ea565b6117718282610806565b15610abf5760008281526065602090815260408083206001600160a01b0385168085529252808320805460ff1916905551339285917ff6391f5c32d9c69d2a47ea670b442974b53935d1edc7fd64eb21e047a839171b9190a45050565b600081815260018301602052604081205480156118b75760006117f26001836126d6565b8554909150600090611806906001906126d6565b905081811461186b576000866000018281548110611826576118266127df565b9060005260206000200154905080876000018481548110611849576118496127df565b6000918252602080832090910192909255918252600188019052604090208390555b855486908061187c5761187c6127c9565b6001900381819060005260206000200160009055905585600101600086815260200190815260200160002060009055600193505050506103f9565b60009150506103f9565b604080516001808252818301909252606091600091906020808301908036833701905050905082816000815181106118fb576118fb6127df565b602090810291909101015292915050565b6001600160a01b0384163b15610e635760405163f23a6e6160e01b81526001600160a01b0385169063f23a6e61906119509089908990889088908890600401612364565b602060405180830381600087803b15801561196a57600080fd5b505af192505050801561199a575060408051601f3d908101601f191682019092526119979181019061220d565b60015b6119a65761163261280b565b6001600160e01b0319811663f23a6e6160e01b146112c55760405162461bcd60e51b81526004016103cb906123fd565b60008260000182815481106119ed576119ed6127df565b9060005260206000200154905092915050565b8051610abf9060cb906020840190611be4565b60006001600160e01b03198216637965db0b60e01b14806103f957506301ffc9a760e01b6001600160e01b03198316146103f9565b60606000611a578360026126b7565b611a6290600261269f565b67ffffffffffffffff811115611a7a57611a7a6127f5565b6040519080825280601f01601f191660200182016040528015611aa4576020820181803683370190505b509050600360fc1b81600081518110611abf57611abf6127df565b60200101906001600160f81b031916908160001a905350600f60fb1b81600181518110611aee57611aee6127df565b60200101906001600160f81b031916908160001a9053506000611b128460026126b7565b611b1d90600161269f565b90505b6001811115611b95576f181899199a1a9b1b9c1cb0b131b232b360811b85600f1660108110611b5157611b516127df565b1a60f81b828281518110611b6757611b676127df565b60200101906001600160f81b031916908160001a90535060049490941c93611b8e81612719565b9050611b20565b5083156107ff5760405162461bcd60e51b815260206004820181905260248201527f537472696e67733a20686578206c656e67746820696e73756666696369656e7460448201526064016103cb565b828054611bf090612730565b90600052602060002090601f016020900481019282611c125760008555611c58565b82601f10611c2b57805160ff1916838001178555611c58565b82800160010185558215611c58579182015b82811115611c58578251825591602001919060010190611c3d565b50611c64929150611c68565b5090565b5b80821115611c645760008155600101611c69565b80356001600160a01b0381168114611c9457600080fd5b919050565b600082601f830112611caa57600080fd5b81356020611cb78261267b565b604051611cc4828261276b565b8381528281019150858301600585901b87018401881015611ce457600080fd5b60005b85811015611d0357813584529284019290840190600101611ce7565b5090979650505050505050565b600082601f830112611d2157600080fd5b813567ffffffffffffffff811115611d3b57611d3b6127f5565b604051611d52601f8301601f19166020018261276b565b818152846020838601011115611d6757600080fd5b816020850160208301376000918101602001919091529392505050565b60008060408385031215611d9757600080fd5b611da083611c7d565b9150611dae60208401611c7d565b90509250929050565b600080600080600060a08688031215611dcf57600080fd5b611dd886611c7d565b9450611de660208701611c7d565b9350604086013567ffffffffffffffff80821115611e0357600080fd5b611e0f89838a01611c99565b94506060880135915080821115611e2557600080fd5b611e3189838a01611c99565b93506080880135915080821115611e4757600080fd5b50611e5488828901611d10565b9150509295509295909350565b600080600080600060a08688031215611e7957600080fd5b611e8286611c7d565b9450611e9060208701611c7d565b93506040860135925060608601359150608086013567ffffffffffffffff811115611eba57600080fd5b611e5488828901611d10565b600080600060608486031215611edb57600080fd5b611ee484611c7d565b9250602084013567ffffffffffffffff80821115611f0157600080fd5b611f0d87838801611c99565b93506040860135915080821115611f2357600080fd5b50611f3086828701611c99565b9150509250925092565b60008060008060808587031215611f5057600080fd5b611f5985611c7d565b9350602085013567ffffffffffffffff80821115611f7657600080fd5b611f8288838901611c99565b94506040870135915080821115611f9857600080fd5b611fa488838901611c99565b93506060870135915080821115611fba57600080fd5b50611fc787828801611d10565b91505092959194509250565b60008060408385031215611fe657600080fd5b611fef83611c7d565b91506020830135801515811461200457600080fd5b809150509250929050565b6000806040838503121561202257600080fd5b61202b83611c7d565b946020939093013593505050565b60008060006060848603121561204e57600080fd5b61205784611c7d565b95602085013595506040909401359392505050565b6000806000806080858703121561208257600080fd5b61208b85611c7d565b93506020850135925060408501359150606085013567ffffffffffffffff8111156120b557600080fd5b611fc787828801611d10565b600080604083850312156120d457600080fd5b823567ffffffffffffffff808211156120ec57600080fd5b818501915085601f83011261210057600080fd5b8135602061210d8261267b565b60405161211a828261276b565b8381528281019150858301600585901b870184018b101561213a57600080fd5b600096505b848710156121645761215081611c7d565b83526001969096019591830191830161213f565b509650508601359250508082111561217b57600080fd5b5061218885828601611c99565b9150509250929050565b6000602082840312156121a457600080fd5b5035919050565b600080604083850312156121be57600080fd5b82359150611dae60208401611c7d565b600080604083850312156121e157600080fd5b50508035926020909101359150565b60006020828403121561220257600080fd5b81356107ff816128b1565b60006020828403121561221f57600080fd5b81516107ff816128b1565b600081518084526020808501945080840160005b8381101561225a5781518752958201959082019060010161223e565b509495945050505050565b6000815180845261227d8160208601602086016126ed565b601f01601f19169290920160200192915050565b7f416363657373436f6e74726f6c3a206163636f756e74200000000000000000008152600083516122c98160178501602088016126ed565b7001034b99036b4b9b9b4b733903937b6329607d1b60179184019182015283516122fa8160288401602088016126ed565b01602801949350505050565b6001600160a01b0386811682528516602082015260a0604082018190526000906123329083018661222a565b8281036060840152612344818661222a565b905082810360808401526123588185612265565b98975050505050505050565b6001600160a01b03868116825285166020820152604081018490526060810183905260a06080820181905260009061239e90830184612265565b979650505050505050565b6020815260006107ff602083018461222a565b6040815260006123cf604083018561222a565b82810360208401526123e1818561222a565b95945050505050565b6020815260006107ff6020830184612265565b60208082526028908201527f455243313135353a204552433131353552656365697665722072656a656374656040820152676420746f6b656e7360c01b606082015260800190565b60208082526024908201527f455243313135353a206275726e20616d6f756e7420657863656564732062616c604082015263616e636560e01b606082015260800190565b60208082526029908201527f455243313135353a2063616c6c6572206973206e6f74206f776e6572206e6f7260408201526808185c1c1c9bdd995960ba1b606082015260800190565b60208082526025908201527f455243313135353a207472616e7366657220746f20746865207a65726f206164604082015264647265737360d81b606082015260800190565b6020808252602e908201527f496e697469616c697a61626c653a20636f6e747261637420697320616c72656160408201526d191e481a5b9a5d1a585b1a5e995960921b606082015260800190565b60208082526023908201527f455243313135353a206275726e2066726f6d20746865207a65726f206164647260408201526265737360e81b606082015260800190565b6020808252602a908201527f455243313135353a20696e73756666696369656e742062616c616e636520666f60408201526939103a3930b739b332b960b11b606082015260800190565b60208082526028908201527f455243313135353a2069647320616e6420616d6f756e7473206c656e677468206040820152670dad2e6dac2e8c6d60c31b606082015260800190565b60208082526021908201527f455243313135353a206d696e7420746f20746865207a65726f206164647265736040820152607360f81b606082015260800190565b600067ffffffffffffffff821115612695576126956127f5565b5060051b60200190565b600082198211156126b2576126b26127b3565b500190565b60008160001904831182151516156126d1576126d16127b3565b500290565b6000828210156126e8576126e86127b3565b500390565b60005b838110156127085781810151838201526020016126f0565b838111156105195750506000910152565b600081612728576127286127b3565b506000190190565b600181811c9082168061274457607f821691505b6020821081141561276557634e487b7160e01b600052602260045260246000fd5b50919050565b601f8201601f1916810167ffffffffffffffff81118282101715612791576127916127f5565b6040525050565b60006000198214156127ac576127ac6127b3565b5060010190565b634e487b7160e01b600052601160045260246000fd5b634e487b7160e01b600052603160045260246000fd5b634e487b7160e01b600052603260045260246000fd5b634e487b7160e01b600052604160045260246000fd5b600060033d11156128245760046000803e5060005160e01c5b90565b600060443d10156128355790565b6040516003193d81016004833e81513d67ffffffffffffffff816024840111818411171561286557505050505090565b828501915081518181111561287d5750505050505090565b843d87010160208285010111156128975750505050505090565b6128a66020828601018761276b565b509095945050505050565b6001600160e01b031981168114610a3a57600080fdfea26469706673582212203af136371537fc7cf457f2ca16bb56edc0167ff92b893dc4aada81a5112eb9c564736f6c63430008060033496e697469616c697a61626c653a20636f6e747261637420697320616c7265619f2df0fed2c77648de5860a4cc508cd0818c85b8b8a1ab4ceeef8d981c8956a67164765a3c8bd2513bdfa0c90f1bee9606e920fbf2c9071f310263fbd818684ba2646970667358221220432a0d7ce09943926fa26c39f160315ae5bb48c6c317344a2a1d6291316bd99064736f6c63430008060033",
  "linkReferences": {},
  "deployedLinkReferences": {}
}